{
  "contractName": "Access_Control",
  "abi": [
    {
      "inputs": [],
      "payable": false,
      "stateMutability": "nonpayable",
      "type": "constructor"
    },
    {
      "anonymous": false,
      "inputs": [
        {
          "indexed": false,
          "internalType": "address",
          "name": "sender",
          "type": "address"
        },
        {
          "indexed": false,
          "internalType": "address",
          "name": "userAddress",
          "type": "address"
        },
        {
          "indexed": false,
          "internalType": "string",
          "name": "message",
          "type": "string"
        }
      ],
      "name": "AccessDenied",
      "type": "event"
    },
    {
      "anonymous": false,
      "inputs": [
        {
          "indexed": false,
          "internalType": "address",
          "name": "userAddress",
          "type": "address"
        },
        {
          "components": [
            {
              "internalType": "string",
              "name": "docname",
              "type": "string"
            },
            {
              "internalType": "string",
              "name": "ipfshash",
              "type": "string"
            },
            {
              "internalType": "string",
              "name": "docID",
              "type": "string"
            },
            {
              "internalType": "string",
              "name": "symmkey",
              "type": "string"
            }
          ],
          "indexed": false,
          "internalType": "struct Access_Control.Document",
          "name": "document",
          "type": "tuple"
        }
      ],
      "name": "DocumentAccessed",
      "type": "event"
    },
    {
      "anonymous": false,
      "inputs": [
        {
          "indexed": false,
          "internalType": "address",
          "name": "sender",
          "type": "address"
        },
        {
          "indexed": false,
          "internalType": "address",
          "name": "userAddress",
          "type": "address"
        },
        {
          "indexed": false,
          "internalType": "string",
          "name": "docname",
          "type": "string"
        },
        {
          "indexed": false,
          "internalType": "string",
          "name": "ipfshash",
          "type": "string"
        },
        {
          "indexed": false,
          "internalType": "string",
          "name": "docID",
          "type": "string"
        }
      ],
      "name": "DocumentAdded",
      "type": "event"
    },
    {
      "anonymous": false,
      "inputs": [
        {
          "indexed": false,
          "internalType": "address",
          "name": "userAdress",
          "type": "address"
        },
        {
          "indexed": false,
          "internalType": "string[]",
          "name": "docnames",
          "type": "string[]"
        }
      ],
      "name": "DocumentsListed",
      "type": "event"
    },
    {
      "anonymous": false,
      "inputs": [
        {
          "indexed": false,
          "internalType": "address",
          "name": "userAddress",
          "type": "address"
        },
        {
          "indexed": false,
          "internalType": "string",
          "name": "username",
          "type": "string"
        },
        {
          "indexed": false,
          "internalType": "string",
          "name": "userID",
          "type": "string"
        },
        {
          "indexed": false,
          "internalType": "bool",
          "name": "sender",
          "type": "bool"
        }
      ],
      "name": "UserAdded",
      "type": "event"
    },
    {
      "anonymous": false,
      "inputs": [
        {
          "indexed": false,
          "internalType": "address",
          "name": "userAddress",
          "type": "address"
        },
        {
          "indexed": false,
          "internalType": "bool",
          "name": "sender",
          "type": "bool"
        }
      ],
      "name": "UserDeleted",
      "type": "event"
    },
    {
      "constant": true,
      "inputs": [
        {
          "internalType": "address",
          "name": "",
          "type": "address"
        },
        {
          "internalType": "uint256",
          "name": "",
          "type": "uint256"
        }
      ],
      "name": "docAccessList",
      "outputs": [
        {
          "internalType": "string",
          "name": "docname",
          "type": "string"
        },
        {
          "internalType": "string",
          "name": "ipfshash",
          "type": "string"
        },
        {
          "internalType": "string",
          "name": "docID",
          "type": "string"
        },
        {
          "internalType": "string",
          "name": "symmkey",
          "type": "string"
        }
      ],
      "payable": false,
      "stateMutability": "view",
      "type": "function"
    },
    {
      "constant": true,
      "inputs": [],
      "name": "owner",
      "outputs": [
        {
          "internalType": "address",
          "name": "",
          "type": "address"
        }
      ],
      "payable": false,
      "stateMutability": "view",
      "type": "function"
    },
    {
      "constant": true,
      "inputs": [
        {
          "internalType": "address",
          "name": "",
          "type": "address"
        }
      ],
      "name": "publickey",
      "outputs": [
        {
          "internalType": "string",
          "name": "",
          "type": "string"
        }
      ],
      "payable": false,
      "stateMutability": "view",
      "type": "function"
    },
    {
      "constant": true,
      "inputs": [
        {
          "internalType": "address",
          "name": "",
          "type": "address"
        }
      ],
      "name": "receiverList",
      "outputs": [
        {
          "internalType": "string",
          "name": "username",
          "type": "string"
        },
        {
          "internalType": "string",
          "name": "userID",
          "type": "string"
        },
        {
          "internalType": "address",
          "name": "useraddress",
          "type": "address"
        }
      ],
      "payable": false,
      "stateMutability": "view",
      "type": "function"
    },
    {
      "constant": true,
      "inputs": [
        {
          "internalType": "address",
          "name": "",
          "type": "address"
        }
      ],
      "name": "senderList",
      "outputs": [
        {
          "internalType": "string",
          "name": "username",
          "type": "string"
        },
        {
          "internalType": "string",
          "name": "userID",
          "type": "string"
        },
        {
          "internalType": "address",
          "name": "useraddress",
          "type": "address"
        }
      ],
      "payable": false,
      "stateMutability": "view",
      "type": "function"
    },
    {
      "constant": true,
      "inputs": [
        {
          "internalType": "string",
          "name": "",
          "type": "string"
        }
      ],
      "name": "userFromNameMap",
      "outputs": [
        {
          "internalType": "string",
          "name": "username",
          "type": "string"
        },
        {
          "internalType": "string",
          "name": "userID",
          "type": "string"
        },
        {
          "internalType": "address",
          "name": "useraddress",
          "type": "address"
        }
      ],
      "payable": false,
      "stateMutability": "view",
      "type": "function"
    },
    {
      "constant": false,
      "inputs": [
        {
          "internalType": "string",
          "name": "_publicKey",
          "type": "string"
        }
      ],
      "name": "registerPublicKey",
      "outputs": [],
      "payable": false,
      "stateMutability": "nonpayable",
      "type": "function"
    },
    {
      "constant": true,
      "inputs": [
        {
          "internalType": "address",
          "name": "_add",
          "type": "address"
        }
      ],
      "name": "getuserList",
      "outputs": [
        {
          "internalType": "string",
          "name": "",
          "type": "string"
        },
        {
          "internalType": "string",
          "name": "",
          "type": "string"
        }
      ],
      "payable": false,
      "stateMutability": "view",
      "type": "function"
    },
    {
      "constant": false,
      "inputs": [
        {
          "internalType": "address",
          "name": "_userAddress",
          "type": "address"
        },
        {
          "internalType": "string",
          "name": "_username",
          "type": "string"
        },
        {
          "internalType": "string",
          "name": "_userID",
          "type": "string"
        },
        {
          "internalType": "bool",
          "name": "sender",
          "type": "bool"
        }
      ],
      "name": "addUser",
      "outputs": [],
      "payable": false,
      "stateMutability": "nonpayable",
      "type": "function"
    },
    {
      "constant": false,
      "inputs": [
        {
          "internalType": "address",
          "name": "_userAddress",
          "type": "address"
        },
        {
          "internalType": "bool",
          "name": "sender",
          "type": "bool"
        }
      ],
      "name": "deleteUser",
      "outputs": [],
      "payable": false,
      "stateMutability": "nonpayable",
      "type": "function"
    },
    {
      "constant": true,
      "inputs": [
        {
          "internalType": "address",
          "name": "_userAddress",
          "type": "address"
        },
        {
          "internalType": "string",
          "name": "_username",
          "type": "string"
        },
        {
          "internalType": "string",
          "name": "_userID",
          "type": "string"
        }
      ],
      "name": "verifyUser",
      "outputs": [
        {
          "internalType": "uint8",
          "name": "",
          "type": "uint8"
        }
      ],
      "payable": false,
      "stateMutability": "view",
      "type": "function"
    },
    {
      "constant": false,
      "inputs": [
        {
          "internalType": "string",
          "name": "_docname",
          "type": "string"
        },
        {
          "internalType": "string",
          "name": "_ipfshash",
          "type": "string"
        },
        {
          "internalType": "string",
          "name": "_docID",
          "type": "string"
        },
        {
          "internalType": "address",
          "name": "_userAddress",
          "type": "address"
        },
        {
          "internalType": "string",
          "name": "_symmkey",
          "type": "string"
        }
      ],
      "name": "addDocument",
      "outputs": [],
      "payable": false,
      "stateMutability": "nonpayable",
      "type": "function"
    },
    {
      "constant": true,
      "inputs": [
        {
          "internalType": "address",
          "name": "_userAddress",
          "type": "address"
        }
      ],
      "name": "getDocCount",
      "outputs": [
        {
          "internalType": "uint256",
          "name": "",
          "type": "uint256"
        }
      ],
      "payable": false,
      "stateMutability": "view",
      "type": "function"
    },
    {
      "constant": false,
      "inputs": [
        {
          "internalType": "address",
          "name": "_userAddress",
          "type": "address"
        }
      ],
      "name": "getDocuments",
      "outputs": [
        {
          "internalType": "string[]",
          "name": "",
          "type": "string[]"
        }
      ],
      "payable": false,
      "stateMutability": "nonpayable",
      "type": "function"
    },
    {
      "constant": false,
      "inputs": [
        {
          "internalType": "address",
          "name": "_userAddress",
          "type": "address"
        },
        {
          "internalType": "string",
          "name": "_docname",
          "type": "string"
        }
      ],
      "name": "getDocumentFromDocname",
      "outputs": [
        {
          "components": [
            {
              "internalType": "string",
              "name": "docname",
              "type": "string"
            },
            {
              "internalType": "string",
              "name": "ipfshash",
              "type": "string"
            },
            {
              "internalType": "string",
              "name": "docID",
              "type": "string"
            },
            {
              "internalType": "string",
              "name": "symmkey",
              "type": "string"
            }
          ],
          "internalType": "struct Access_Control.Document",
          "name": "",
          "type": "tuple"
        }
      ],
      "payable": false,
      "stateMutability": "nonpayable",
      "type": "function"
    }
  ],
  "bytecode": "0x608060405234801561001057600080fd5b5033600560006101000a81548173ffffffffffffffffffffffffffffffffffffffff021916908373ffffffffffffffffffffffffffffffffffffffff16021790555061351b806100616000396000f3fe608060405234801561001057600080fd5b50600436106100f55760003560e01c806387bc9fad11610097578063ab7cc52f11610066578063ab7cc52f146102ec578063c6f4771a1461031e578063f1de7ec81461033a578063f590b65f14610356576100f5565b806387bc9fad1461024e5780638d3e5f2d1461026a5780638da5cb5b1461029c5780639cd4cf02146102ba576100f5565b806327f50a2d116100d357806327f50a2d1461018b578063412b294b146101bb5780636884839d146101ee57806378c188c51461021e576100f5565b806305b4b431146100fa5780631c73d3b21461012a57806321c7f28c1461015a575b600080fd5b610114600480360361010f9190810190612607565b610372565b6040516101219190613247565b60405180910390f35b610144600480360361013f91908101906125a2565b610804565b6040516101519190613269565b60405180910390f35b610174600480360361016f91908101906125a2565b610850565b60405161018292919061308a565b60405180910390f35b6101a560048036036101a091908101906125a2565b610aa6565b6040516101b29190613046565b60405180910390f35b6101d560048036036101d0919081019061276d565b610d3f565b6040516101e59493929190613106565b60405180910390f35b610208600480360361020391908101906125a2565b610fe9565b6040516102159190613068565b60405180910390f35b6102386004803603610233919081019061265b565b611099565b6040516102459190613284565b60405180910390f35b610268600480360361026391908101906125cb565b61140b565b005b610284600480360361027f91908101906125a2565b6117a1565b604051610293939291906130c1565b60405180910390f35b6102a461191b565b6040516102b19190612eab565b60405180910390f35b6102d460048036036102cf91908101906125a2565b611941565b6040516102e3939291906130c1565b60405180910390f35b610306600480360361030191908101906127a9565b611abb565b604051610315939291906130c1565b60405180910390f35b6103386004803603610333919081019061282b565b611c4b565b005b610354600480360361034f91908101906126da565b611e3a565b005b610370600480360361036b91908101906127ea565b612298565b005b61037a6122ef565b8273ffffffffffffffffffffffffffffffffffffffff163373ffffffffffffffffffffffffffffffffffffffff16146103e8576040517f08c379a00000000000000000000000000000000000000000000000000000000081526004016103df906131a7565b60405180910390fd5b6000600460008573ffffffffffffffffffffffffffffffffffffffff1673ffffffffffffffffffffffffffffffffffffffff168152602001908152602001600020905060008090505b81805490508110156107c2578360405160200161044e9190612e7d565b6040516020818303038152906040528051906020012082828154811061047057fe5b90600052602060002090600402016000016040516020016104919190612e94565b6040516020818303038152906040528051906020012014156107b5577f69c184361ac45822d4bf615c0fe1e1c4a8be0bdc5cbd23d1efca00db485f1630858383815481106104db57fe5b90600052602060002090600402016040516104f7929190613016565b60405180910390a181818154811061050b57fe5b9060005260206000209060040201604051806080016040529081600082018054600181600116156101000203166002900480601f0160208091040260200160405190810160405280929190818152602001828054600181600116156101000203166002900480156105bd5780601f10610592576101008083540402835291602001916105bd565b820191906000526020600020905b8154815290600101906020018083116105a057829003601f168201915b50505050508152602001600182018054600181600116156101000203166002900480601f01602080910402602001604051908101604052809291908181526020018280546001816001161561010002031660029004801561065f5780601f106106345761010080835404028352916020019161065f565b820191906000526020600020905b81548152906001019060200180831161064257829003601f168201915b50505050508152602001600282018054600181600116156101000203166002900480601f0160208091040260200160405190810160405280929190818152602001828054600181600116156101000203166002900480156107015780601f106106d657610100808354040283529160200191610701565b820191906000526020600020905b8154815290600101906020018083116106e457829003601f168201915b50505050508152602001600382018054600181600116156101000203166002900480601f0160208091040260200160405190810160405280929190818152602001828054600181600116156101000203166002900480156107a35780601f10610778576101008083540402835291602001916107a3565b820191906000526020600020905b81548152906001019060200180831161078657829003601f168201915b505050505081525050925050506107fe565b8080600101915050610431565b506040517f08c379a00000000000000000000000000000000000000000000000000000000081526004016107f5906131e7565b60405180910390fd5b92915050565b6000600460008373ffffffffffffffffffffffffffffffffffffffff1673ffffffffffffffffffffffffffffffffffffffff168152602001908152602001600020805490509050919050565b606080600560009054906101000a900473ffffffffffffffffffffffffffffffffffffffff1673ffffffffffffffffffffffffffffffffffffffff163373ffffffffffffffffffffffffffffffffffffffff16146108e3576040517f08c379a00000000000000000000000000000000000000000000000000000000081526004016108da90613167565b60405180910390fd5b6000808473ffffffffffffffffffffffffffffffffffffffff1673ffffffffffffffffffffffffffffffffffffffff1681526020019081526020016000206000016000808573ffffffffffffffffffffffffffffffffffffffff1673ffffffffffffffffffffffffffffffffffffffff168152602001908152602001600020600101818054600181600116156101000203166002900480601f0160208091040260200160405190810160405280929190818152602001828054600181600116156101000203166002900480156109fa5780601f106109cf576101008083540402835291602001916109fa565b820191906000526020600020905b8154815290600101906020018083116109dd57829003601f168201915b50505050509150808054600181600116156101000203166002900480601f016020809104026020016040519081016040528092919081815260200182805460018160011615610100020316600290048015610a965780601f10610a6b57610100808354040283529160200191610a96565b820191906000526020600020905b815481529060010190602001808311610a7957829003601f168201915b5050505050905091509150915091565b60608173ffffffffffffffffffffffffffffffffffffffff163373ffffffffffffffffffffffffffffffffffffffff1614610b4f577fb9698efb07b9cc58cbbd5d8cd256f2cf3eeeba0f314c12fbc31928fab34dc9803383604051610b0c929190612f2e565b60405180910390a16040517f08c379a0000000000000000000000000000000000000000000000000000000008152600401610b46906131a7565b60405180910390fd5b6000600460008473ffffffffffffffffffffffffffffffffffffffff1673ffffffffffffffffffffffffffffffffffffffff168152602001908152602001600020805490509050606081604051908082528060200260200182016040528015610bcc57816020015b6060815260200190600190039081610bb75790505b50905060008090505b82811015610cfb576000600460008773ffffffffffffffffffffffffffffffffffffffff1673ffffffffffffffffffffffffffffffffffffffff1681526020019081526020016000208281548110610c2957fe5b90600052602060002090600402019050806000018054600181600116156101000203166002900480601f016020809104026020016040519081016040528092919081815260200182805460018160011615610100020316600290048015610cd15780601f10610ca657610100808354040283529160200191610cd1565b820191906000526020600020905b815481529060010190602001808311610cb457829003601f168201915b5050505050838381518110610ce257fe5b6020026020010181905250508080600101915050610bd5565b507fce1e70ee2e917ed1134ca1510b3e71d2056186c5ae4b026a865e90b3812ce4d28482604051610d2d929190612f6a565b60405180910390a18092505050919050565b60046020528160005260406000208181548110610d5857fe5b906000526020600020906004020160009150915050806000018054600181600116156101000203166002900480601f016020809104026020016040519081016040528092919081815260200182805460018160011615610100020316600290048015610e055780601f10610dda57610100808354040283529160200191610e05565b820191906000526020600020905b815481529060010190602001808311610de857829003601f168201915b505050505090806001018054600181600116156101000203166002900480601f016020809104026020016040519081016040528092919081815260200182805460018160011615610100020316600290048015610ea35780601f10610e7857610100808354040283529160200191610ea3565b820191906000526020600020905b815481529060010190602001808311610e8657829003601f168201915b505050505090806002018054600181600116156101000203166002900480601f016020809104026020016040519081016040528092919081815260200182805460018160011615610100020316600290048015610f415780601f10610f1657610100808354040283529160200191610f41565b820191906000526020600020905b815481529060010190602001808311610f2457829003601f168201915b505050505090806003018054600181600116156101000203166002900480601f016020809104026020016040519081016040528092919081815260200182805460018160011615610100020316600290048015610fdf5780601f10610fb457610100808354040283529160200191610fdf565b820191906000526020600020905b815481529060010190602001808311610fc257829003601f168201915b5050505050905084565b60036020528060005260406000206000915090508054600181600116156101000203166002900480601f0160208091040260200160405190810160405280929190818152602001828054600181600116156101000203166002900480156110915780601f1061106657610100808354040283529160200191611091565b820191906000526020600020905b81548152906001019060200180831161107457829003601f168201915b505050505081565b6000806000808673ffffffffffffffffffffffffffffffffffffffff1673ffffffffffffffffffffffffffffffffffffffff16815260200190815260200160002060000180546001816001161561010002031660029004905014158061115657506000600160008673ffffffffffffffffffffffffffffffffffffffff1673ffffffffffffffffffffffffffffffffffffffff16815260200190815260200160002060000180546001816001161561010002031660029004905014155b611195576040517f08c379a000000000000000000000000000000000000000000000000000000000815260040161118c90613207565b60405180910390fd5b826040516020016111a69190612e7d565b604051602081830303815290604052805190602001206000808673ffffffffffffffffffffffffffffffffffffffff1673ffffffffffffffffffffffffffffffffffffffff16815260200190815260200160002060000160405160200161120d9190612e94565b604051602081830303815290604052805190602001201480156112bb57508160405160200161123c9190612e7d565b604051602081830303815290604052805190602001206000808673ffffffffffffffffffffffffffffffffffffffff1673ffffffffffffffffffffffffffffffffffffffff1681526020019081526020016000206001016040516020016112a39190612e94565b60405160208183030381529060405280519060200120145b156112c95760029050611404565b826040516020016112da9190612e7d565b60405160208183030381529060405280519060200120600160008673ffffffffffffffffffffffffffffffffffffffff1673ffffffffffffffffffffffffffffffffffffffff1681526020019081526020016000206000016040516020016113429190612e94565b604051602081830303815290604052805190602001201480156113f15750816040516020016113719190612e7d565b60405160208183030381529060405280519060200120600160008673ffffffffffffffffffffffffffffffffffffffff1673ffffffffffffffffffffffffffffffffffffffff1681526020019081526020016000206001016040516020016113d99190612e94565b60405160208183030381529060405280519060200120145b156113ff5760019050611404565b600090505b9392505050565b600560009054906101000a900473ffffffffffffffffffffffffffffffffffffffff1673ffffffffffffffffffffffffffffffffffffffff163373ffffffffffffffffffffffffffffffffffffffff161461149b576040517f08c379a000000000000000000000000000000000000000000000000000000000815260040161149290613167565b60405180910390fd5b8080156114ff57506000600160008473ffffffffffffffffffffffffffffffffffffffff1673ffffffffffffffffffffffffffffffffffffffff16815260200190815260200160002060000180546001816001161561010002031660029004905014155b80611560575060008060008473ffffffffffffffffffffffffffffffffffffffff1673ffffffffffffffffffffffffffffffffffffffff16815260200190815260200160002060000180546001816001161561010002031660029004905014155b61159f576040517f08c379a000000000000000000000000000000000000000000000000000000000815260040161159690613187565b60405180910390fd5b801561163357600160008373ffffffffffffffffffffffffffffffffffffffff1673ffffffffffffffffffffffffffffffffffffffff168152602001908152602001600020600080820160006115f59190612317565b6001820160006116059190612317565b6002820160006101000a81549073ffffffffffffffffffffffffffffffffffffffff02191690555050611764565b60026000808473ffffffffffffffffffffffffffffffffffffffff1673ffffffffffffffffffffffffffffffffffffffff1681526020019081526020016000206000016040516116839190612e94565b9081526020016040518091039020600080820160006116a29190612317565b6001820160006116b29190612317565b6002820160006101000a81549073ffffffffffffffffffffffffffffffffffffffff021916905550506000808373ffffffffffffffffffffffffffffffffffffffff1673ffffffffffffffffffffffffffffffffffffffff1681526020019081526020016000206000808201600061172a9190612317565b60018201600061173a9190612317565b6002820160006101000a81549073ffffffffffffffffffffffffffffffffffffffff021916905550505b7f84575b21619a9ae6ef391477f1017be60323335aabaf95dc8daaca2b97ff6f298282604051611795929190612f9a565b60405180910390a15050565b6001602052806000526040600020600091509050806000018054600181600116156101000203166002900480601f01602080910402602001604051908101604052809291908181526020018280546001816001161561010002031660029004801561184d5780601f106118225761010080835404028352916020019161184d565b820191906000526020600020905b81548152906001019060200180831161183057829003601f168201915b505050505090806001018054600181600116156101000203166002900480601f0160208091040260200160405190810160405280929190818152602001828054600181600116156101000203166002900480156118eb5780601f106118c0576101008083540402835291602001916118eb565b820191906000526020600020905b8154815290600101906020018083116118ce57829003601f168201915b5050505050908060020160009054906101000a900473ffffffffffffffffffffffffffffffffffffffff16905083565b600560009054906101000a900473ffffffffffffffffffffffffffffffffffffffff1681565b6000602052806000526040600020600091509050806000018054600181600116156101000203166002900480601f0160208091040260200160405190810160405280929190818152602001828054600181600116156101000203166002900480156119ed5780601f106119c2576101008083540402835291602001916119ed565b820191906000526020600020905b8154815290600101906020018083116119d057829003601f168201915b505050505090806001018054600181600116156101000203166002900480601f016020809104026020016040519081016040528092919081815260200182805460018160011615610100020316600290048015611a8b5780601f10611a6057610100808354040283529160200191611a8b565b820191906000526020600020905b815481529060010190602001808311611a6e57829003601f168201915b5050505050908060020160009054906101000a900473ffffffffffffffffffffffffffffffffffffffff16905083565b600281805160208101820180518482526020830160208501208183528095505050505050600091509050806000018054600181600116156101000203166002900480601f016020809104026020016040519081016040528092919081815260200182805460018160011615610100020316600290048015611b7d5780601f10611b5257610100808354040283529160200191611b7d565b820191906000526020600020905b815481529060010190602001808311611b6057829003601f168201915b505050505090806001018054600181600116156101000203166002900480601f016020809104026020016040519081016040528092919081815260200182805460018160011615610100020316600290048015611c1b5780601f10611bf057610100808354040283529160200191611c1b565b820191906000526020600020905b815481529060010190602001808311611bfe57829003601f168201915b5050505050908060020160009054906101000a900473ffffffffffffffffffffffffffffffffffffffff16905083565b6000600160003373ffffffffffffffffffffffffffffffffffffffff1673ffffffffffffffffffffffffffffffffffffffff1681526020019081526020016000206000018054600181600116156101000203166002900490501415611ce5576040517f08c379a0000000000000000000000000000000000000000000000000000000008152600401611cdc90613227565b60405180910390fd5b611ced6122ef565b858160000181905250848160200181905250838160400181905250818160600181905250600460008473ffffffffffffffffffffffffffffffffffffffff1673ffffffffffffffffffffffffffffffffffffffff16815260200190815260200160002081908060018154018082558091505090600182039060005260206000209060040201600090919290919091506000820151816000019080519060200190611d9892919061235f565b506020820151816001019080519060200190611db592919061235f565b506040820151816002019080519060200190611dd292919061235f565b506060820151816003019080519060200190611def92919061235f565b505050507f15318dcc2c09f5f472e35eea1902d60d65b9fd2852ec52e1e7719e18677466f93384888888604051611e2a959493929190612ec6565b60405180910390a1505050505050565b600560009054906101000a900473ffffffffffffffffffffffffffffffffffffffff1673ffffffffffffffffffffffffffffffffffffffff163373ffffffffffffffffffffffffffffffffffffffff1614611eca576040517f08c379a0000000000000000000000000000000000000000000000000000000008152600401611ec190613167565b60405180910390fd5b808015611f2d57506000600160008673ffffffffffffffffffffffffffffffffffffffff1673ffffffffffffffffffffffffffffffffffffffff168152602001908152602001600020600001805460018160011615610100020316600290049050145b80611f8d575060008060008673ffffffffffffffffffffffffffffffffffffffff1673ffffffffffffffffffffffffffffffffffffffff168152602001908152602001600020600001805460018160011615610100020316600290049050145b611fcc576040517f08c379a0000000000000000000000000000000000000000000000000000000008152600401611fc3906131c7565b60405180910390fd5b611fd46123df565b83816000018190525082816020018190525084816040019073ffffffffffffffffffffffffffffffffffffffff16908173ffffffffffffffffffffffffffffffffffffffff168152505081156120ed5780600160008773ffffffffffffffffffffffffffffffffffffffff1673ffffffffffffffffffffffffffffffffffffffff168152602001908152602001600020600082015181600001908051906020019061208092919061235f565b50602082015181600101908051906020019061209d92919061235f565b5060408201518160020160006101000a81548173ffffffffffffffffffffffffffffffffffffffff021916908373ffffffffffffffffffffffffffffffffffffffff160217905550905050612254565b806002856040516120fe9190612e7d565b9081526020016040518091039020600082015181600001908051906020019061212892919061235f565b50602082015181600101908051906020019061214592919061235f565b5060408201518160020160006101000a81548173ffffffffffffffffffffffffffffffffffffffff021916908373ffffffffffffffffffffffffffffffffffffffff160217905550905050806000808773ffffffffffffffffffffffffffffffffffffffff1673ffffffffffffffffffffffffffffffffffffffff16815260200190815260200160002060008201518160000190805190602001906121eb92919061235f565b50602082015181600101908051906020019061220892919061235f565b5060408201518160020160006101000a81548173ffffffffffffffffffffffffffffffffffffffff021916908373ffffffffffffffffffffffffffffffffffffffff1602179055509050505b7f99ea35f66439010500c59c9714f04ed5ce6e9dcc9e07bc1d3a3b779c1d73dfe6858585856040516122899493929190612fc3565b60405180910390a15050505050565b80600360003373ffffffffffffffffffffffffffffffffffffffff1673ffffffffffffffffffffffffffffffffffffffff16815260200190815260200160002090805190602001906122eb929190612416565b5050565b6040518060800160405280606081526020016060815260200160608152602001606081525090565b50805460018160011615610100020316600290046000825580601f1061233d575061235c565b601f01602090049060005260206000209081019061235b9190612496565b5b50565b828054600181600116156101000203166002900490600052602060002090601f016020900481019282601f106123a057805160ff19168380011785556123ce565b828001600101855582156123ce579182015b828111156123cd5782518255916020019190600101906123b2565b5b5090506123db9190612496565b5090565b60405180606001604052806060815260200160608152602001600073ffffffffffffffffffffffffffffffffffffffff1681525090565b828054600181600116156101000203166002900490600052602060002090601f016020900481019282601f1061245757805160ff1916838001178555612485565b82800160010185558215612485579182015b82811115612484578251825591602001919060010190612469565b5b5090506124929190612496565b5090565b6124b891905b808211156124b457600081600090555060010161249c565b5090565b90565b6000813590506124ca81613493565b92915050565b6000813590506124df816134aa565b92915050565b600082601f8301126124f657600080fd5b8135612509612504826132cc565b61329f565b9150808252602083016020830185838301111561252557600080fd5b612530838284613440565b50505092915050565b600082601f83011261254a57600080fd5b813561255d612558826132f8565b61329f565b9150808252602083016020830185838301111561257957600080fd5b612584838284613440565b50505092915050565b60008135905061259c816134c1565b92915050565b6000602082840312156125b457600080fd5b60006125c2848285016124bb565b91505092915050565b600080604083850312156125de57600080fd5b60006125ec858286016124bb565b92505060206125fd858286016124d0565b9150509250929050565b6000806040838503121561261a57600080fd5b6000612628858286016124bb565b925050602083013567ffffffffffffffff81111561264557600080fd5b61265185828601612539565b9150509250929050565b60008060006060848603121561267057600080fd5b600061267e868287016124bb565b935050602084013567ffffffffffffffff81111561269b57600080fd5b6126a786828701612539565b925050604084013567ffffffffffffffff8111156126c457600080fd5b6126d086828701612539565b9150509250925092565b600080600080608085870312156126f057600080fd5b60006126fe878288016124bb565b945050602085013567ffffffffffffffff81111561271b57600080fd5b61272787828801612539565b935050604085013567ffffffffffffffff81111561274457600080fd5b61275087828801612539565b9250506060612761878288016124d0565b91505092959194509250565b6000806040838503121561278057600080fd5b600061278e858286016124bb565b925050602061279f8582860161258d565b9150509250929050565b6000602082840312156127bb57600080fd5b600082013567ffffffffffffffff8111156127d557600080fd5b6127e1848285016124e5565b91505092915050565b6000602082840312156127fc57600080fd5b600082013567ffffffffffffffff81111561281657600080fd5b61282284828501612539565b91505092915050565b600080600080600060a0868803121561284357600080fd5b600086013567ffffffffffffffff81111561285d57600080fd5b61286988828901612539565b955050602086013567ffffffffffffffff81111561288657600080fd5b61289288828901612539565b945050604086013567ffffffffffffffff8111156128af57600080fd5b6128bb88828901612539565b93505060606128cc888289016124bb565b925050608086013567ffffffffffffffff8111156128e957600080fd5b6128f588828901612539565b9150509295509295909350565b600061290e8383612a22565b905092915050565b61291f8161340a565b82525050565b61292e816133b5565b82525050565b600061293f82613349565b6129498185613377565b93508360208202850161295b85613324565b8060005b8581101561299757848403895281516129788582612902565b94506129838361336a565b925060208a0199505060018101905061295f565b50829750879550505050505092915050565b6129b2816133c7565b82525050565b60006129c38261335f565b6129cd8185613399565b93506129dd81856020860161344f565b6129e681613482565b840191505092915050565b60006129fc8261335f565b612a0681856133aa565b9350612a1681856020860161344f565b80840191505092915050565b6000612a2d82613354565b612a378185613388565b9350612a4781856020860161344f565b612a5081613482565b840191505092915050565b6000612a6682613354565b612a708185613399565b9350612a8081856020860161344f565b612a8981613482565b840191505092915050565b600081546001811660008114612ab15760018114612ad757612b1b565b607f6002830416612ac28187613388565b955060ff198316865260208601935050612b1b565b60028204612ae58187613388565b9550612af085613334565b60005b82811015612b1257815481890152600182019150602081019050612af3565b80880195505050505b505092915050565b600081546001811660008114612b405760018114612b6557612ba9565b607f6002830416612b5181876133aa565b955060ff1983168652808601935050612ba9565b60028204612b7381876133aa565b9550612b7e85613334565b60005b82811015612ba057815481890152600182019150602081019050612b81565b82880195505050505b505092915050565b6000612bbe601783613399565b91507f43616c6c6572206973206e6f7420746865206f776e65720000000000000000006000830152602082019050919050565b6000612bfe601a83613399565b91507f757365722f73656e64657220646f6573206e6f742065786973740000000000006000830152602082019050919050565b6000612c3e601883613399565b91507f617474656d707420746f206163636573732064656e69656400000000000000006000830152602082019050919050565b6000612c7e601a83613399565b91507f73656e6465722f7573657220616c7265616479206578697374730000000000006000830152602082019050919050565b6000612cbe601583613399565b91507f446f63756d656e74204944206e6f7420666f756e6400000000000000000000006000830152602082019050919050565b6000612cfe601383613399565b91507f5573657220646f6573206e6f74206578697374000000000000000000000000006000830152602082019050919050565b6000612d3e601a83613399565b91507f6163636f756e742075736564206973206e6f742073656e6465720000000000006000830152602082019050919050565b60006080830160008301518482036000860152612d8e8282612a22565b91505060208301518482036020860152612da88282612a22565b91505060408301518482036040860152612dc28282612a22565b91505060608301518482036060860152612ddc8282612a22565b9150508091505092915050565b60006080830160008084018583036000870152612e068382612a94565b925050600184018583036020870152612e1f8382612a94565b925050600284018583036040870152612e388382612a94565b925050600384018583036060870152612e518382612a94565b925050819250505092915050565b612e68816133f3565b82525050565b612e77816133fd565b82525050565b6000612e8982846129f1565b915081905092915050565b6000612ea08284612b23565b915081905092915050565b6000602082019050612ec06000830184612925565b92915050565b600060a082019050612edb6000830188612916565b612ee86020830187612925565b8181036040830152612efa81866129b8565b90508181036060830152612f0e81856129b8565b90508181036080830152612f2281846129b8565b90509695505050505050565b6000606082019050612f436000830185612916565b612f506020830184612925565b8181036040830152612f6181612c31565b90509392505050565b6000604082019050612f7f6000830185612925565b8181036020830152612f918184612934565b90509392505050565b6000604082019050612faf6000830185612925565b612fbc60208301846129a9565b9392505050565b6000608082019050612fd86000830187612925565b8181036020830152612fea81866129b8565b90508181036040830152612ffe81856129b8565b905061300d60608301846129a9565b95945050505050565b600060408201905061302b6000830185612925565b818103602083015261303d8184612de9565b90509392505050565b600060208201905081810360008301526130608184612934565b905092915050565b600060208201905081810360008301526130828184612a5b565b905092915050565b600060408201905081810360008301526130a481856129b8565b905081810360208301526130b881846129b8565b90509392505050565b600060608201905081810360008301526130db8186612a5b565b905081810360208301526130ef8185612a5b565b90506130fe6040830184612925565b949350505050565b600060808201905081810360008301526131208187612a5b565b905081810360208301526131348186612a5b565b905081810360408301526131488185612a5b565b9050818103606083015261315c8184612a5b565b905095945050505050565b6000602082019050818103600083015261318081612bb1565b9050919050565b600060208201905081810360008301526131a081612bf1565b9050919050565b600060208201905081810360008301526131c081612c31565b9050919050565b600060208201905081810360008301526131e081612c71565b9050919050565b6000602082019050818103600083015261320081612cb1565b9050919050565b6000602082019050818103600083015261322081612cf1565b9050919050565b6000602082019050818103600083015261324081612d31565b9050919050565b600060208201905081810360008301526132618184612d71565b905092915050565b600060208201905061327e6000830184612e5f565b92915050565b60006020820190506132996000830184612e6e565b92915050565b6000604051905081810181811067ffffffffffffffff821117156132c257600080fd5b8060405250919050565b600067ffffffffffffffff8211156132e357600080fd5b601f19601f8301169050602081019050919050565b600067ffffffffffffffff82111561330f57600080fd5b601f19601f8301169050602081019050919050565b6000819050602082019050919050565b60008190508160005260206000209050919050565b600081519050919050565b600081519050919050565b600081519050919050565b6000602082019050919050565b600082825260208201905092915050565b600082825260208201905092915050565b600082825260208201905092915050565b600081905092915050565b60006133c0826133d3565b9050919050565b60008115159050919050565b600073ffffffffffffffffffffffffffffffffffffffff82169050919050565b6000819050919050565b600060ff82169050919050565b60006134158261341c565b9050919050565b60006134278261342e565b9050919050565b6000613439826133d3565b9050919050565b82818337600083830152505050565b60005b8381101561346d578082015181840152602081019050613452565b8381111561347c576000848401525b50505050565b6000601f19601f8301169050919050565b61349c816133b5565b81146134a757600080fd5b50565b6134b3816133c7565b81146134be57600080fd5b50565b6134ca816133f3565b81146134d557600080fd5b5056fea365627a7a7231582063b6d145215d12034708ce640f36e782942d07c086198140dae50d293caa3f086c6578706572696d656e74616cf564736f6c63430005100040",
  "source": "pragma solidity ^0.5.16;\r\npragma experimental ABIEncoderV2;\r\n\r\ncontract Access_Control {\r\n    struct User {\r\n        string username;\r\n        string userID;\r\n        address useraddress;\r\n    }\r\n\r\n    struct Document {\r\n        string docname;\r\n        string ipfshash;\r\n        string docID;\r\n        string symmkey;\r\n    }\r\n\r\n    mapping(address => User) public receiverList;\r\n    mapping(address => User) public senderList;\r\n    mapping(string => User) public userFromNameMap;\r\n    mapping(address=> string) public publickey;\r\n    mapping(address => Document[]) public docAccessList;\r\n    address public owner;\r\n\r\n    constructor() public {\r\n        owner = msg.sender;\r\n    }\r\n\r\n    modifier onlyOwner() {\r\n        require(msg.sender == owner, \"Caller is not the owner\");\r\n        _;\r\n    }\r\n\r\n    event UserAdded(address userAddress, string username, string userID, bool sender);\r\n    event UserDeleted(address userAddress, bool sender);\r\n    event DocumentAdded(address sender, address userAddress, string docname, string ipfshash, string docID);\r\n    event DocumentAccessed(address userAddress, Document document);\r\n    //event DocumentAccessedHash(address userAddress, string dochash);\r\n    event DocumentsListed(address userAdress, string[] docnames);\r\n    event AccessDenied(address sender, address userAddress, string message);\r\n\r\n    function registerPublicKey(string memory _publicKey) public {\r\n        publickey[msg.sender] = _publicKey;\r\n    }\r\n\r\n    function getuserList(address _add) public view onlyOwner returns (string memory, string memory) {\r\n        return (receiverList[_add].username, receiverList[_add].userID);\r\n    }\r\n\r\n    function addUser(address _userAddress, string memory _username, string memory _userID, bool sender) public onlyOwner {\r\n        require((sender && bytes(senderList[_userAddress].username).length == 0) ||\r\n            (bytes(receiverList[_userAddress].username).length == 0),\r\n            \"sender/user already exists\");\r\n\r\n        User memory new_user;\r\n        new_user.username = _username;\r\n        new_user.userID = _userID;\r\n        new_user.useraddress = _userAddress;\r\n\r\n        if (sender) {\r\n            senderList[_userAddress] = new_user;\r\n        } else {\r\n            userFromNameMap[_username] = new_user;\r\n            receiverList[_userAddress] = new_user;\r\n        }\r\n        \r\n        emit UserAdded(_userAddress, _username, _userID, sender);\r\n    }\r\n\r\n    function deleteUser(address _userAddress, bool sender) public onlyOwner {\r\n        require((sender && bytes(senderList[_userAddress].username).length != 0) ||\r\n            (bytes(receiverList[_userAddress].username).length != 0), \"user/sender does not exist\");\r\n\r\n        if (sender) {\r\n            delete senderList[_userAddress];\r\n        } else {\r\n            delete userFromNameMap[receiverList[_userAddress].username];\r\n            delete receiverList[_userAddress];\r\n        }\r\n        \r\n        emit UserDeleted(_userAddress, sender);\r\n    }\r\n\r\n    function verifyUser(address _userAddress, string memory _username, string memory _userID) public view returns (uint8) {\r\n        require((bytes(receiverList[_userAddress].username).length != 0) || (bytes(senderList[_userAddress].username).length != 0), \"User does not exist\");\r\n\r\n        if (keccak256(abi.encodePacked(receiverList[_userAddress].username)) == keccak256(abi.encodePacked(_username)) &&\r\n            keccak256(abi.encodePacked(receiverList[_userAddress].userID)) == keccak256(abi.encodePacked(_userID))) {\r\n            return 2;\r\n        } \r\n        if (keccak256(abi.encodePacked(senderList[_userAddress].username)) == keccak256(abi.encodePacked(_username)) &&\r\n            keccak256(abi.encodePacked(senderList[_userAddress].userID)) == keccak256(abi.encodePacked(_userID))) {\r\n            return 1;\r\n        }\r\n\r\n        return 0;\r\n    }\r\n\r\n    function addDocument(string memory _docname, string memory _ipfshash, string memory _docID, address _userAddress, string memory _symmkey) public {\r\n        require(bytes(senderList[msg.sender].username).length != 0, \"account used is not sender\");\r\n\r\n        Document memory new_doc;\r\n        new_doc.docname = _docname;\r\n        new_doc.ipfshash = _ipfshash;\r\n        new_doc.docID = _docID;\r\n        new_doc.symmkey=_symmkey;\r\n\r\n        docAccessList[_userAddress].push(new_doc);\r\n\r\n        emit DocumentAdded(msg.sender, _userAddress, _docname, _ipfshash, _docID);\r\n    }\r\n\r\n    function getDocCount(address _userAddress) public view returns (uint) {\r\n        return docAccessList[_userAddress].length;\r\n    }\r\n\r\n    function getDocuments(address _userAddress) public returns (string[] memory) {\r\n        if (msg.sender != _userAddress) {\r\n            emit AccessDenied(msg.sender, _userAddress, \"attempt to access denied\");\r\n            revert(\"attempt to access denied\");\r\n        }\r\n\r\n        uint docCount = docAccessList[_userAddress].length;\r\n        string[] memory docnames = new string[](docCount);\r\n\r\n        for (uint i = 0; i < docCount; i++) {\r\n            Document storage doc = docAccessList[_userAddress][i];\r\n            docnames[i] = doc.docname;\r\n        }\r\n\r\n        //emit DocumentAccessed(_userAddress, \"all documents\");\r\n        emit DocumentsListed(_userAddress, docnames);\r\n\r\n        return docnames;\r\n    }\r\n\r\n    function getDocumentFromDocname(address _userAddress, string memory _docname) public returns (Document memory) {\r\n        require(msg.sender == _userAddress, \"attempt to access denied\");\r\n        \r\n\r\n        Document[] storage documents = docAccessList[_userAddress];\r\n\r\n        for (uint i = 0; i < documents.length; i++) {\r\n            if (keccak256(abi.encodePacked(documents[i].docname)) == keccak256(abi.encodePacked(_docname))) {\r\n                emit DocumentAccessed(_userAddress, documents[i]);\r\n                //emit DocumentAccessedHash(_userAddress, documents[i].ipfshash);\r\n                return documents[i];\r\n            }\r\n        }\r\n\r\n        revert(\"Document ID not found\");\r\n    }\r\n}\r\n",
  "sourcePath": "C:\\Users\\alex_\\lawfer_root\\contracts\\Access_Control.sol",
  "compiler": {
    "name": "solc",
    "version": "0.5.16+commit.9c3226ce.Emscripten.clang"
  },
  "schemaVersion": "3.4.16",
  "updatedAt": "2024-07-23T12:00:45.455Z",
  "networkType": "ethereum",
  "devdoc": {
    "methods": {}
  },
  "userdoc": {
    "methods": {}
  }
}