{
  "contractName": "Access_Control",
  "abi": [
    {
      "inputs": [],
      "payable": false,
      "stateMutability": "nonpayable",
      "type": "constructor"
    },
    {
      "anonymous": false,
      "inputs": [
        {
          "indexed": false,
          "internalType": "address",
          "name": "sender",
          "type": "address"
        },
        {
          "indexed": false,
          "internalType": "address",
          "name": "userAddress",
          "type": "address"
        },
        {
          "indexed": false,
          "internalType": "string",
          "name": "message",
          "type": "string"
        }
      ],
      "name": "AccessDenied",
      "type": "event"
    },
    {
      "anonymous": false,
      "inputs": [
        {
          "indexed": false,
          "internalType": "address",
          "name": "userAddress",
          "type": "address"
        },
        {
          "indexed": false,
          "internalType": "string",
          "name": "docname",
          "type": "string"
        },
        {
          "indexed": false,
          "internalType": "string",
          "name": "dochash",
          "type": "string"
        }
      ],
      "name": "DocumentAccessed",
      "type": "event"
    },
    {
      "anonymous": false,
      "inputs": [
        {
          "indexed": false,
          "internalType": "address",
          "name": "sender",
          "type": "address"
        },
        {
          "indexed": false,
          "internalType": "address",
          "name": "userAddress",
          "type": "address"
        },
        {
          "indexed": false,
          "internalType": "string",
          "name": "docname",
          "type": "string"
        },
        {
          "indexed": false,
          "internalType": "string",
          "name": "ipfshash",
          "type": "string"
        },
        {
          "indexed": false,
          "internalType": "string",
          "name": "docID",
          "type": "string"
        }
      ],
      "name": "DocumentAdded",
      "type": "event"
    },
    {
      "anonymous": false,
      "inputs": [
        {
          "indexed": false,
          "internalType": "address",
          "name": "userAdress",
          "type": "address"
        },
        {
          "indexed": false,
          "internalType": "string[]",
          "name": "docnames",
          "type": "string[]"
        }
      ],
      "name": "DocumentsListed",
      "type": "event"
    },
    {
      "anonymous": false,
      "inputs": [
        {
          "indexed": false,
          "internalType": "address",
          "name": "userAddress",
          "type": "address"
        },
        {
          "indexed": false,
          "internalType": "string",
          "name": "username",
          "type": "string"
        },
        {
          "indexed": false,
          "internalType": "string",
          "name": "userID",
          "type": "string"
        },
        {
          "indexed": false,
          "internalType": "bool",
          "name": "sender",
          "type": "bool"
        }
      ],
      "name": "UserAdded",
      "type": "event"
    },
    {
      "anonymous": false,
      "inputs": [
        {
          "indexed": false,
          "internalType": "address",
          "name": "userAddress",
          "type": "address"
        },
        {
          "indexed": false,
          "internalType": "bool",
          "name": "sender",
          "type": "bool"
        }
      ],
      "name": "UserDeleted",
      "type": "event"
    },
    {
      "constant": true,
      "inputs": [
        {
          "internalType": "address",
          "name": "",
          "type": "address"
        },
        {
          "internalType": "uint256",
          "name": "",
          "type": "uint256"
        }
      ],
      "name": "docAccessList",
      "outputs": [
        {
          "internalType": "string",
          "name": "docname",
          "type": "string"
        },
        {
          "internalType": "string",
          "name": "ipfshash",
          "type": "string"
        },
        {
          "internalType": "string",
          "name": "docID",
          "type": "string"
        }
      ],
      "payable": false,
      "stateMutability": "view",
      "type": "function"
    },
    {
      "constant": true,
      "inputs": [],
      "name": "owner",
      "outputs": [
        {
          "internalType": "address",
          "name": "",
          "type": "address"
        }
      ],
      "payable": false,
      "stateMutability": "view",
      "type": "function"
    },
    {
      "constant": true,
      "inputs": [
        {
          "internalType": "address",
          "name": "",
          "type": "address"
        }
      ],
      "name": "publickey",
      "outputs": [
        {
          "internalType": "string",
          "name": "",
          "type": "string"
        }
      ],
      "payable": false,
      "stateMutability": "view",
      "type": "function"
    },
    {
      "constant": true,
      "inputs": [
        {
          "internalType": "address",
          "name": "",
          "type": "address"
        }
      ],
      "name": "receiverList",
      "outputs": [
        {
          "internalType": "string",
          "name": "username",
          "type": "string"
        },
        {
          "internalType": "string",
          "name": "userID",
          "type": "string"
        },
        {
          "internalType": "address",
          "name": "useraddress",
          "type": "address"
        }
      ],
      "payable": false,
      "stateMutability": "view",
      "type": "function"
    },
    {
      "constant": true,
      "inputs": [
        {
          "internalType": "address",
          "name": "",
          "type": "address"
        }
      ],
      "name": "senderList",
      "outputs": [
        {
          "internalType": "string",
          "name": "username",
          "type": "string"
        },
        {
          "internalType": "string",
          "name": "userID",
          "type": "string"
        },
        {
          "internalType": "address",
          "name": "useraddress",
          "type": "address"
        }
      ],
      "payable": false,
      "stateMutability": "view",
      "type": "function"
    },
    {
      "constant": true,
      "inputs": [
        {
          "internalType": "string",
          "name": "",
          "type": "string"
        }
      ],
      "name": "userFromName",
      "outputs": [
        {
          "internalType": "string",
          "name": "username",
          "type": "string"
        },
        {
          "internalType": "string",
          "name": "userID",
          "type": "string"
        },
        {
          "internalType": "address",
          "name": "useraddress",
          "type": "address"
        }
      ],
      "payable": false,
      "stateMutability": "view",
      "type": "function"
    },
    {
      "constant": false,
      "inputs": [
        {
          "internalType": "string",
          "name": "_publicKey",
          "type": "string"
        }
      ],
      "name": "registerPublicKey",
      "outputs": [],
      "payable": false,
      "stateMutability": "nonpayable",
      "type": "function"
    },
    {
      "constant": true,
      "inputs": [
        {
          "internalType": "address",
          "name": "_add",
          "type": "address"
        }
      ],
      "name": "getuserList",
      "outputs": [
        {
          "internalType": "string",
          "name": "",
          "type": "string"
        },
        {
          "internalType": "string",
          "name": "",
          "type": "string"
        }
      ],
      "payable": false,
      "stateMutability": "view",
      "type": "function"
    },
    {
      "constant": false,
      "inputs": [
        {
          "internalType": "address",
          "name": "_userAddress",
          "type": "address"
        },
        {
          "internalType": "string",
          "name": "_username",
          "type": "string"
        },
        {
          "internalType": "string",
          "name": "_userID",
          "type": "string"
        },
        {
          "internalType": "bool",
          "name": "sender",
          "type": "bool"
        }
      ],
      "name": "addUser",
      "outputs": [],
      "payable": false,
      "stateMutability": "nonpayable",
      "type": "function"
    },
    {
      "constant": false,
      "inputs": [
        {
          "internalType": "address",
          "name": "_userAddress",
          "type": "address"
        },
        {
          "internalType": "bool",
          "name": "sender",
          "type": "bool"
        }
      ],
      "name": "deleteUser",
      "outputs": [],
      "payable": false,
      "stateMutability": "nonpayable",
      "type": "function"
    },
    {
      "constant": true,
      "inputs": [
        {
          "internalType": "address",
          "name": "_userAddress",
          "type": "address"
        },
        {
          "internalType": "string",
          "name": "_username",
          "type": "string"
        },
        {
          "internalType": "string",
          "name": "_userID",
          "type": "string"
        }
      ],
      "name": "verifyUser",
      "outputs": [
        {
          "internalType": "uint8",
          "name": "",
          "type": "uint8"
        }
      ],
      "payable": false,
      "stateMutability": "view",
      "type": "function"
    },
    {
      "constant": false,
      "inputs": [
        {
          "internalType": "string",
          "name": "_docname",
          "type": "string"
        },
        {
          "internalType": "string",
          "name": "_ipfshash",
          "type": "string"
        },
        {
          "internalType": "string",
          "name": "_docID",
          "type": "string"
        },
        {
          "internalType": "address",
          "name": "_userAddress",
          "type": "address"
        }
      ],
      "name": "addDocument",
      "outputs": [],
      "payable": false,
      "stateMutability": "nonpayable",
      "type": "function"
    },
    {
      "constant": true,
      "inputs": [
        {
          "internalType": "address",
          "name": "_userAddress",
          "type": "address"
        }
      ],
      "name": "getDocCount",
      "outputs": [
        {
          "internalType": "uint256",
          "name": "",
          "type": "uint256"
        }
      ],
      "payable": false,
      "stateMutability": "view",
      "type": "function"
    },
    {
      "constant": false,
      "inputs": [
        {
          "internalType": "address",
          "name": "_userAddress",
          "type": "address"
        }
      ],
      "name": "getDocuments",
      "outputs": [
        {
          "internalType": "string[]",
          "name": "",
          "type": "string[]"
        }
      ],
      "payable": false,
      "stateMutability": "nonpayable",
      "type": "function"
    },
    {
      "constant": false,
      "inputs": [
        {
          "internalType": "address",
          "name": "_userAddress",
          "type": "address"
        },
        {
          "internalType": "string",
          "name": "_docname",
          "type": "string"
        }
      ],
      "name": "getIPFSHashFromDocname",
      "outputs": [
        {
          "internalType": "string",
          "name": "",
          "type": "string"
        }
      ],
      "payable": false,
      "stateMutability": "nonpayable",
      "type": "function"
    }
  ],
  "bytecode": "0x608060405234801561001057600080fd5b5033600560006101000a81548173ffffffffffffffffffffffffffffffffffffffff021916908373ffffffffffffffffffffffffffffffffffffffff16021790555061313c806100616000396000f3fe608060405234801561001057600080fd5b50600436106100f55760003560e01c806378c188c5116100975780639cd4cf02116100665780639cd4cf02146102eb578063a6f59da11461031d578063f1de7ec814610339578063f590b65f14610355576100f5565b806378c188c51461024f57806387bc9fad1461027f5780638d3e5f2d1461029b5780638da5cb5b146102cd576100f5565b806321c7f28c116100d357806321c7f28c1461018c57806327f50a2d146101bd578063412b294b146101ed5780636884839d1461021f576100f5565b80630e365c75146100fa578063133f25131461012c5780631c73d3b21461015c575b600080fd5b610114600480360361010f91908101906124e4565b610371565b60405161012393929190612d19565b60405180910390f35b61014660048036036101419190810190612342565b610501565b6040516101539190612cc0565b60405180910390f35b610176600480360361017191908101906122dd565b61079b565b6040516101839190612e8a565b60405180910390f35b6101a660048036036101a191908101906122dd565b6107e7565b6040516101b4929190612ce2565b60405180910390f35b6101d760048036036101d291908101906122dd565b610a3d565b6040516101e49190612c7c565b60405180910390f35b610207600480360361020291908101906124a8565b610cd6565b60405161021693929190612d5e565b60405180910390f35b610239600480360361023491908101906122dd565b610ee2565b6040516102469190612c9e565b60405180910390f35b61026960048036036102649190810190612396565b610f92565b6040516102769190612ea5565b60405180910390f35b61029960048036036102949190810190612306565b611304565b005b6102b560048036036102b091908101906122dd565b61169a565b6040516102c493929190612d19565b60405180910390f35b6102d5611814565b6040516102e29190612acc565b60405180910390f35b610305600480360361030091908101906122dd565b61183a565b60405161031493929190612d19565b60405180910390f35b61033760048036036103329190810190612566565b6119b4565b005b610353600480360361034e9190810190612415565b611b7c565b005b61036f600480360361036a9190810190612525565b611fda565b005b600281805160208101820180518482526020830160208501208183528095505050505050600091509050806000018054600181600116156101000203166002900480601f0160208091040260200160405190810160405280929190818152602001828054600181600116156101000203166002900480156104335780601f1061040857610100808354040283529160200191610433565b820191906000526020600020905b81548152906001019060200180831161041657829003601f168201915b505050505090806001018054600181600116156101000203166002900480601f0160208091040260200160405190810160405280929190818152602001828054600181600116156101000203166002900480156104d15780601f106104a6576101008083540402835291602001916104d1565b820191906000526020600020905b8154815290600101906020018083116104b457829003601f168201915b5050505050908060020160009054906101000a900473ffffffffffffffffffffffffffffffffffffffff16905083565b60608273ffffffffffffffffffffffffffffffffffffffff163373ffffffffffffffffffffffffffffffffffffffff1614610571576040517f08c379a000000000000000000000000000000000000000000000000000000000815260040161056890612dea565b60405180910390fd5b6000600460008573ffffffffffffffffffffffffffffffffffffffff1673ffffffffffffffffffffffffffffffffffffffff168152602001908152602001600020905060008090505b818054905081101561075957836040516020016105d79190612a9e565b604051602081830303815290604052805190602001208282815481106105f957fe5b906000526020600020906003020160000160405160200161061a9190612ab5565b60405160208183030381529060405280519060200120141561074c577ffb1f071b15391d7494e8e9c016b967a2f2578b975882c3e73eeb85d9eb8b87c0858584848154811061066557fe5b906000526020600020906003020160010160405161068593929190612c37565b60405180910390a181818154811061069957fe5b90600052602060002090600302016001018054600181600116156101000203166002900480601f01602080910402602001604051908101604052809291908181526020018280546001816001161561010002031660029004801561073e5780601f106107135761010080835404028352916020019161073e565b820191906000526020600020905b81548152906001019060200180831161072157829003601f168201915b505050505092505050610795565b80806001019150506105ba565b506040517f08c379a000000000000000000000000000000000000000000000000000000000815260040161078c90612e2a565b60405180910390fd5b92915050565b6000600460008373ffffffffffffffffffffffffffffffffffffffff1673ffffffffffffffffffffffffffffffffffffffff168152602001908152602001600020805490509050919050565b606080600560009054906101000a900473ffffffffffffffffffffffffffffffffffffffff1673ffffffffffffffffffffffffffffffffffffffff163373ffffffffffffffffffffffffffffffffffffffff161461087a576040517f08c379a000000000000000000000000000000000000000000000000000000000815260040161087190612daa565b60405180910390fd5b6000808473ffffffffffffffffffffffffffffffffffffffff1673ffffffffffffffffffffffffffffffffffffffff1681526020019081526020016000206000016000808573ffffffffffffffffffffffffffffffffffffffff1673ffffffffffffffffffffffffffffffffffffffff168152602001908152602001600020600101818054600181600116156101000203166002900480601f0160208091040260200160405190810160405280929190818152602001828054600181600116156101000203166002900480156109915780601f1061096657610100808354040283529160200191610991565b820191906000526020600020905b81548152906001019060200180831161097457829003601f168201915b50505050509150808054600181600116156101000203166002900480601f016020809104026020016040519081016040528092919081815260200182805460018160011615610100020316600290048015610a2d5780601f10610a0257610100808354040283529160200191610a2d565b820191906000526020600020905b815481529060010190602001808311610a1057829003601f168201915b5050505050905091509150915091565b60608173ffffffffffffffffffffffffffffffffffffffff163373ffffffffffffffffffffffffffffffffffffffff1614610ae6577fb9698efb07b9cc58cbbd5d8cd256f2cf3eeeba0f314c12fbc31928fab34dc9803383604051610aa3929190612b4f565b60405180910390a16040517f08c379a0000000000000000000000000000000000000000000000000000000008152600401610add90612dea565b60405180910390fd5b6000600460008473ffffffffffffffffffffffffffffffffffffffff1673ffffffffffffffffffffffffffffffffffffffff168152602001908152602001600020805490509050606081604051908082528060200260200182016040528015610b6357816020015b6060815260200190600190039081610b4e5790505b50905060008090505b82811015610c92576000600460008773ffffffffffffffffffffffffffffffffffffffff1673ffffffffffffffffffffffffffffffffffffffff1681526020019081526020016000208281548110610bc057fe5b90600052602060002090600302019050806000018054600181600116156101000203166002900480601f016020809104026020016040519081016040528092919081815260200182805460018160011615610100020316600290048015610c685780601f10610c3d57610100808354040283529160200191610c68565b820191906000526020600020905b815481529060010190602001808311610c4b57829003601f168201915b5050505050838381518110610c7957fe5b6020026020010181905250508080600101915050610b6c565b507fce1e70ee2e917ed1134ca1510b3e71d2056186c5ae4b026a865e90b3812ce4d28482604051610cc4929190612b8b565b60405180910390a18092505050919050565b60046020528160005260406000208181548110610cef57fe5b906000526020600020906003020160009150915050806000018054600181600116156101000203166002900480601f016020809104026020016040519081016040528092919081815260200182805460018160011615610100020316600290048015610d9c5780601f10610d7157610100808354040283529160200191610d9c565b820191906000526020600020905b815481529060010190602001808311610d7f57829003601f168201915b505050505090806001018054600181600116156101000203166002900480601f016020809104026020016040519081016040528092919081815260200182805460018160011615610100020316600290048015610e3a5780601f10610e0f57610100808354040283529160200191610e3a565b820191906000526020600020905b815481529060010190602001808311610e1d57829003601f168201915b505050505090806002018054600181600116156101000203166002900480601f016020809104026020016040519081016040528092919081815260200182805460018160011615610100020316600290048015610ed85780601f10610ead57610100808354040283529160200191610ed8565b820191906000526020600020905b815481529060010190602001808311610ebb57829003601f168201915b5050505050905083565b60036020528060005260406000206000915090508054600181600116156101000203166002900480601f016020809104026020016040519081016040528092919081815260200182805460018160011615610100020316600290048015610f8a5780601f10610f5f57610100808354040283529160200191610f8a565b820191906000526020600020905b815481529060010190602001808311610f6d57829003601f168201915b505050505081565b6000806000808673ffffffffffffffffffffffffffffffffffffffff1673ffffffffffffffffffffffffffffffffffffffff16815260200190815260200160002060000180546001816001161561010002031660029004905014158061104f57506000600160008673ffffffffffffffffffffffffffffffffffffffff1673ffffffffffffffffffffffffffffffffffffffff16815260200190815260200160002060000180546001816001161561010002031660029004905014155b61108e576040517f08c379a000000000000000000000000000000000000000000000000000000000815260040161108590612e4a565b60405180910390fd5b8260405160200161109f9190612a9e565b604051602081830303815290604052805190602001206000808673ffffffffffffffffffffffffffffffffffffffff1673ffffffffffffffffffffffffffffffffffffffff1681526020019081526020016000206000016040516020016111069190612ab5565b604051602081830303815290604052805190602001201480156111b45750816040516020016111359190612a9e565b604051602081830303815290604052805190602001206000808673ffffffffffffffffffffffffffffffffffffffff1673ffffffffffffffffffffffffffffffffffffffff16815260200190815260200160002060010160405160200161119c9190612ab5565b60405160208183030381529060405280519060200120145b156111c257600290506112fd565b826040516020016111d39190612a9e565b60405160208183030381529060405280519060200120600160008673ffffffffffffffffffffffffffffffffffffffff1673ffffffffffffffffffffffffffffffffffffffff16815260200190815260200160002060000160405160200161123b9190612ab5565b604051602081830303815290604052805190602001201480156112ea57508160405160200161126a9190612a9e565b60405160208183030381529060405280519060200120600160008673ffffffffffffffffffffffffffffffffffffffff1673ffffffffffffffffffffffffffffffffffffffff1681526020019081526020016000206001016040516020016112d29190612ab5565b60405160208183030381529060405280519060200120145b156112f857600190506112fd565b600090505b9392505050565b600560009054906101000a900473ffffffffffffffffffffffffffffffffffffffff1673ffffffffffffffffffffffffffffffffffffffff163373ffffffffffffffffffffffffffffffffffffffff1614611394576040517f08c379a000000000000000000000000000000000000000000000000000000000815260040161138b90612daa565b60405180910390fd5b8080156113f857506000600160008473ffffffffffffffffffffffffffffffffffffffff1673ffffffffffffffffffffffffffffffffffffffff16815260200190815260200160002060000180546001816001161561010002031660029004905014155b80611459575060008060008473ffffffffffffffffffffffffffffffffffffffff1673ffffffffffffffffffffffffffffffffffffffff16815260200190815260200160002060000180546001816001161561010002031660029004905014155b611498576040517f08c379a000000000000000000000000000000000000000000000000000000000815260040161148f90612dca565b60405180910390fd5b801561152c57600160008373ffffffffffffffffffffffffffffffffffffffff1673ffffffffffffffffffffffffffffffffffffffff168152602001908152602001600020600080820160006114ee9190612031565b6001820160006114fe9190612031565b6002820160006101000a81549073ffffffffffffffffffffffffffffffffffffffff0219169055505061165d565b60026000808473ffffffffffffffffffffffffffffffffffffffff1673ffffffffffffffffffffffffffffffffffffffff16815260200190815260200160002060000160405161157c9190612ab5565b90815260200160405180910390206000808201600061159b9190612031565b6001820160006115ab9190612031565b6002820160006101000a81549073ffffffffffffffffffffffffffffffffffffffff021916905550506000808373ffffffffffffffffffffffffffffffffffffffff1673ffffffffffffffffffffffffffffffffffffffff168152602001908152602001600020600080820160006116239190612031565b6001820160006116339190612031565b6002820160006101000a81549073ffffffffffffffffffffffffffffffffffffffff021916905550505b7f84575b21619a9ae6ef391477f1017be60323335aabaf95dc8daaca2b97ff6f29828260405161168e929190612bbb565b60405180910390a15050565b6001602052806000526040600020600091509050806000018054600181600116156101000203166002900480601f0160208091040260200160405190810160405280929190818152602001828054600181600116156101000203166002900480156117465780601f1061171b57610100808354040283529160200191611746565b820191906000526020600020905b81548152906001019060200180831161172957829003601f168201915b505050505090806001018054600181600116156101000203166002900480601f0160208091040260200160405190810160405280929190818152602001828054600181600116156101000203166002900480156117e45780601f106117b9576101008083540402835291602001916117e4565b820191906000526020600020905b8154815290600101906020018083116117c757829003601f168201915b5050505050908060020160009054906101000a900473ffffffffffffffffffffffffffffffffffffffff16905083565b600560009054906101000a900473ffffffffffffffffffffffffffffffffffffffff1681565b6000602052806000526040600020600091509050806000018054600181600116156101000203166002900480601f0160208091040260200160405190810160405280929190818152602001828054600181600116156101000203166002900480156118e65780601f106118bb576101008083540402835291602001916118e6565b820191906000526020600020905b8154815290600101906020018083116118c957829003601f168201915b505050505090806001018054600181600116156101000203166002900480601f0160208091040260200160405190810160405280929190818152602001828054600181600116156101000203166002900480156119845780601f1061195957610100808354040283529160200191611984565b820191906000526020600020905b81548152906001019060200180831161196757829003601f168201915b5050505050908060020160009054906101000a900473ffffffffffffffffffffffffffffffffffffffff16905083565b6000600160003373ffffffffffffffffffffffffffffffffffffffff1673ffffffffffffffffffffffffffffffffffffffff1681526020019081526020016000206000018054600181600116156101000203166002900490501415611a4e576040517f08c379a0000000000000000000000000000000000000000000000000000000008152600401611a4590612e6a565b60405180910390fd5b611a56612079565b848160000181905250838160200181905250828160400181905250600460008373ffffffffffffffffffffffffffffffffffffffff1673ffffffffffffffffffffffffffffffffffffffff16815260200190815260200160002081908060018154018082558091505090600182039060005260206000209060030201600090919290919091506000820151816000019080519060200190611af892919061209a565b506020820151816001019080519060200190611b1592919061209a565b506040820151816002019080519060200190611b3292919061209a565b505050507f15318dcc2c09f5f472e35eea1902d60d65b9fd2852ec52e1e7719e18677466f93383878787604051611b6d959493929190612ae7565b60405180910390a15050505050565b600560009054906101000a900473ffffffffffffffffffffffffffffffffffffffff1673ffffffffffffffffffffffffffffffffffffffff163373ffffffffffffffffffffffffffffffffffffffff1614611c0c576040517f08c379a0000000000000000000000000000000000000000000000000000000008152600401611c0390612daa565b60405180910390fd5b808015611c6f57506000600160008673ffffffffffffffffffffffffffffffffffffffff1673ffffffffffffffffffffffffffffffffffffffff168152602001908152602001600020600001805460018160011615610100020316600290049050145b80611ccf575060008060008673ffffffffffffffffffffffffffffffffffffffff1673ffffffffffffffffffffffffffffffffffffffff168152602001908152602001600020600001805460018160011615610100020316600290049050145b611d0e576040517f08c379a0000000000000000000000000000000000000000000000000000000008152600401611d0590612e0a565b60405180910390fd5b611d1661211a565b83816000018190525082816020018190525084816040019073ffffffffffffffffffffffffffffffffffffffff16908173ffffffffffffffffffffffffffffffffffffffff16815250508115611e2f5780600160008773ffffffffffffffffffffffffffffffffffffffff1673ffffffffffffffffffffffffffffffffffffffff1681526020019081526020016000206000820151816000019080519060200190611dc292919061209a565b506020820151816001019080519060200190611ddf92919061209a565b5060408201518160020160006101000a81548173ffffffffffffffffffffffffffffffffffffffff021916908373ffffffffffffffffffffffffffffffffffffffff160217905550905050611f96565b80600285604051611e409190612a9e565b90815260200160405180910390206000820151816000019080519060200190611e6a92919061209a565b506020820151816001019080519060200190611e8792919061209a565b5060408201518160020160006101000a81548173ffffffffffffffffffffffffffffffffffffffff021916908373ffffffffffffffffffffffffffffffffffffffff160217905550905050806000808773ffffffffffffffffffffffffffffffffffffffff1673ffffffffffffffffffffffffffffffffffffffff1681526020019081526020016000206000820151816000019080519060200190611f2d92919061209a565b506020820151816001019080519060200190611f4a92919061209a565b5060408201518160020160006101000a81548173ffffffffffffffffffffffffffffffffffffffff021916908373ffffffffffffffffffffffffffffffffffffffff1602179055509050505b7f99ea35f66439010500c59c9714f04ed5ce6e9dcc9e07bc1d3a3b779c1d73dfe685858585604051611fcb9493929190612be4565b60405180910390a15050505050565b80600360003373ffffffffffffffffffffffffffffffffffffffff1673ffffffffffffffffffffffffffffffffffffffff168152602001908152602001600020908051906020019061202d929190612151565b5050565b50805460018160011615610100020316600290046000825580601f106120575750612076565b601f01602090049060005260206000209081019061207591906121d1565b5b50565b60405180606001604052806060815260200160608152602001606081525090565b828054600181600116156101000203166002900490600052602060002090601f016020900481019282601f106120db57805160ff1916838001178555612109565b82800160010185558215612109579182015b828111156121085782518255916020019190600101906120ed565b5b50905061211691906121d1565b5090565b60405180606001604052806060815260200160608152602001600073ffffffffffffffffffffffffffffffffffffffff1681525090565b828054600181600116156101000203166002900490600052602060002090601f016020900481019282601f1061219257805160ff19168380011785556121c0565b828001600101855582156121c0579182015b828111156121bf5782518255916020019190600101906121a4565b5b5090506121cd91906121d1565b5090565b6121f391905b808211156121ef5760008160009055506001016121d7565b5090565b90565b600081359050612205816130b4565b92915050565b60008135905061221a816130cb565b92915050565b600082601f83011261223157600080fd5b813561224461223f82612eed565b612ec0565b9150808252602083016020830185838301111561226057600080fd5b61226b838284613061565b50505092915050565b600082601f83011261228557600080fd5b813561229861229382612f19565b612ec0565b915080825260208301602083018583830111156122b457600080fd5b6122bf838284613061565b50505092915050565b6000813590506122d7816130e2565b92915050565b6000602082840312156122ef57600080fd5b60006122fd848285016121f6565b91505092915050565b6000806040838503121561231957600080fd5b6000612327858286016121f6565b92505060206123388582860161220b565b9150509250929050565b6000806040838503121561235557600080fd5b6000612363858286016121f6565b925050602083013567ffffffffffffffff81111561238057600080fd5b61238c85828601612274565b9150509250929050565b6000806000606084860312156123ab57600080fd5b60006123b9868287016121f6565b935050602084013567ffffffffffffffff8111156123d657600080fd5b6123e286828701612274565b925050604084013567ffffffffffffffff8111156123ff57600080fd5b61240b86828701612274565b9150509250925092565b6000806000806080858703121561242b57600080fd5b6000612439878288016121f6565b945050602085013567ffffffffffffffff81111561245657600080fd5b61246287828801612274565b935050604085013567ffffffffffffffff81111561247f57600080fd5b61248b87828801612274565b925050606061249c8782880161220b565b91505092959194509250565b600080604083850312156124bb57600080fd5b60006124c9858286016121f6565b92505060206124da858286016122c8565b9150509250929050565b6000602082840312156124f657600080fd5b600082013567ffffffffffffffff81111561251057600080fd5b61251c84828501612220565b91505092915050565b60006020828403121561253757600080fd5b600082013567ffffffffffffffff81111561255157600080fd5b61255d84828501612274565b91505092915050565b6000806000806080858703121561257c57600080fd5b600085013567ffffffffffffffff81111561259657600080fd5b6125a287828801612274565b945050602085013567ffffffffffffffff8111156125bf57600080fd5b6125cb87828801612274565b935050604085013567ffffffffffffffff8111156125e857600080fd5b6125f487828801612274565b9250506060612605878288016121f6565b91505092959194509250565b600061261d8383612731565b905092915050565b61262e8161302b565b82525050565b61263d81612fd6565b82525050565b600061264e82612f6a565b6126588185612f98565b93508360208202850161266a85612f45565b8060005b858110156126a657848403895281516126878582612611565b945061269283612f8b565b925060208a0199505060018101905061266e565b50829750879550505050505092915050565b6126c181612fe8565b82525050565b60006126d282612f80565b6126dc8185612fba565b93506126ec818560208601613070565b6126f5816130a3565b840191505092915050565b600061270b82612f80565b6127158185612fcb565b9350612725818560208601613070565b80840191505092915050565b600061273c82612f75565b6127468185612fa9565b9350612756818560208601613070565b61275f816130a3565b840191505092915050565b600061277582612f75565b61277f8185612fba565b935061278f818560208601613070565b612798816130a3565b840191505092915050565b6000815460018116600081146127c057600181146127e65761282a565b607f60028304166127d18187612fba565b955060ff19831686526020860193505061282a565b600282046127f48187612fba565b95506127ff85612f55565b60005b8281101561282157815481890152600182019150602081019050612802565b80880195505050505b505092915050565b60008154600181166000811461284f5760018114612874576128b8565b607f60028304166128608187612fcb565b955060ff19831686528086019350506128b8565b600282046128828187612fcb565b955061288d85612f55565b60005b828110156128af57815481890152600182019150602081019050612890565b82880195505050505b505092915050565b60006128cd601783612fba565b91507f43616c6c6572206973206e6f7420746865206f776e65720000000000000000006000830152602082019050919050565b600061290d601a83612fba565b91507f757365722f73656e64657220646f6573206e6f742065786973740000000000006000830152602082019050919050565b600061294d601883612fba565b91507f617474656d707420746f206163636573732064656e69656400000000000000006000830152602082019050919050565b600061298d601a83612fba565b91507f73656e6465722f7573657220616c7265616479206578697374730000000000006000830152602082019050919050565b60006129cd601583612fba565b91507f446f63756d656e74204944206e6f7420666f756e6400000000000000000000006000830152602082019050919050565b6000612a0d601383612fba565b91507f5573657220646f6573206e6f74206578697374000000000000000000000000006000830152602082019050919050565b6000612a4d601a83612fba565b91507f6163636f756e742075736564206973206e6f742073656e6465720000000000006000830152602082019050919050565b612a8981613014565b82525050565b612a988161301e565b82525050565b6000612aaa8284612700565b915081905092915050565b6000612ac18284612832565b915081905092915050565b6000602082019050612ae16000830184612634565b92915050565b600060a082019050612afc6000830188612625565b612b096020830187612634565b8181036040830152612b1b81866126c7565b90508181036060830152612b2f81856126c7565b90508181036080830152612b4381846126c7565b90509695505050505050565b6000606082019050612b646000830185612625565b612b716020830184612634565b8181036040830152612b8281612940565b90509392505050565b6000604082019050612ba06000830185612634565b8181036020830152612bb28184612643565b90509392505050565b6000604082019050612bd06000830185612634565b612bdd60208301846126b8565b9392505050565b6000608082019050612bf96000830187612634565b8181036020830152612c0b81866126c7565b90508181036040830152612c1f81856126c7565b9050612c2e60608301846126b8565b95945050505050565b6000606082019050612c4c6000830186612634565b8181036020830152612c5e81856126c7565b90508181036040830152612c7281846127a3565b9050949350505050565b60006020820190508181036000830152612c968184612643565b905092915050565b60006020820190508181036000830152612cb8818461276a565b905092915050565b60006020820190508181036000830152612cda81846126c7565b905092915050565b60006040820190508181036000830152612cfc81856126c7565b90508181036020830152612d1081846126c7565b90509392505050565b60006060820190508181036000830152612d33818661276a565b90508181036020830152612d47818561276a565b9050612d566040830184612634565b949350505050565b60006060820190508181036000830152612d78818661276a565b90508181036020830152612d8c818561276a565b90508181036040830152612da0818461276a565b9050949350505050565b60006020820190508181036000830152612dc3816128c0565b9050919050565b60006020820190508181036000830152612de381612900565b9050919050565b60006020820190508181036000830152612e0381612940565b9050919050565b60006020820190508181036000830152612e2381612980565b9050919050565b60006020820190508181036000830152612e43816129c0565b9050919050565b60006020820190508181036000830152612e6381612a00565b9050919050565b60006020820190508181036000830152612e8381612a40565b9050919050565b6000602082019050612e9f6000830184612a80565b92915050565b6000602082019050612eba6000830184612a8f565b92915050565b6000604051905081810181811067ffffffffffffffff82111715612ee357600080fd5b8060405250919050565b600067ffffffffffffffff821115612f0457600080fd5b601f19601f8301169050602081019050919050565b600067ffffffffffffffff821115612f3057600080fd5b601f19601f8301169050602081019050919050565b6000819050602082019050919050565b60008190508160005260206000209050919050565b600081519050919050565b600081519050919050565b600081519050919050565b6000602082019050919050565b600082825260208201905092915050565b600082825260208201905092915050565b600082825260208201905092915050565b600081905092915050565b6000612fe182612ff4565b9050919050565b60008115159050919050565b600073ffffffffffffffffffffffffffffffffffffffff82169050919050565b6000819050919050565b600060ff82169050919050565b60006130368261303d565b9050919050565b60006130488261304f565b9050919050565b600061305a82612ff4565b9050919050565b82818337600083830152505050565b60005b8381101561308e578082015181840152602081019050613073565b8381111561309d576000848401525b50505050565b6000601f19601f8301169050919050565b6130bd81612fd6565b81146130c857600080fd5b50565b6130d481612fe8565b81146130df57600080fd5b50565b6130eb81613014565b81146130f657600080fd5b5056fea365627a7a723158207bcc2a46f92169177165e203e5671e0b14cb3beae83dcc8ea9f735786586bd7d6c6578706572696d656e74616cf564736f6c63430005100040",
  "source": "pragma solidity ^0.5.16;\r\npragma experimental ABIEncoderV2;\r\n\r\ncontract Access_Control {\r\n    struct User {\r\n        string username;\r\n        string userID;\r\n        address useraddress;\r\n    }\r\n\r\n    struct Document {\r\n        string docname;\r\n        string ipfshash;\r\n        string docID;\r\n    }\r\n\r\n    mapping(address => User) public receiverList;\r\n    mapping(address => User) public senderList;\r\n    mapping(string => User) public userFromName;\r\n    mapping(address=> string) public publickey;\r\n    mapping(address => Document[]) public docAccessList;\r\n    address public owner;\r\n\r\n    constructor() public {\r\n        owner = msg.sender;\r\n    }\r\n\r\n    modifier onlyOwner() {\r\n        require(msg.sender == owner, \"Caller is not the owner\");\r\n        _;\r\n    }\r\n\r\n    event UserAdded(address userAddress, string username, string userID, bool sender);\r\n    event UserDeleted(address userAddress, bool sender);\r\n    event DocumentAdded(address sender, address userAddress, string docname, string ipfshash, string docID);\r\n    event DocumentAccessed(address userAddress, string docname, string dochash);\r\n    //event DocumentAccessedHash(address userAddress, string dochash);\r\n    event DocumentsListed(address userAdress, string[] docnames);\r\n    event AccessDenied(address sender, address userAddress, string message);\r\n\r\n    function registerPublicKey(string memory _publicKey) public {\r\n        publickey[msg.sender] = _publicKey;\r\n    }\r\n\r\n    function getuserList(address _add) public view onlyOwner returns (string memory, string memory) {\r\n        return (receiverList[_add].username, receiverList[_add].userID);\r\n    }\r\n\r\n    function addUser(address _userAddress, string memory _username, string memory _userID, bool sender) public onlyOwner {\r\n        require((sender && bytes(senderList[_userAddress].username).length == 0) ||\r\n            (bytes(receiverList[_userAddress].username).length == 0),\r\n            \"sender/user already exists\");\r\n\r\n        User memory new_user;\r\n        new_user.username = _username;\r\n        new_user.userID = _userID;\r\n        new_user.useraddress = _userAddress;\r\n\r\n        if (sender) {\r\n            senderList[_userAddress] = new_user;\r\n        } else {\r\n            userFromName[_username] = new_user;\r\n            receiverList[_userAddress] = new_user;\r\n        }\r\n        \r\n        emit UserAdded(_userAddress, _username, _userID, sender);\r\n    }\r\n\r\n    function deleteUser(address _userAddress, bool sender) public onlyOwner {\r\n        require((sender && bytes(senderList[_userAddress].username).length != 0) ||\r\n            (bytes(receiverList[_userAddress].username).length != 0), \"user/sender does not exist\");\r\n\r\n        if (sender) {\r\n            delete senderList[_userAddress];\r\n        } else {\r\n            delete userFromName[receiverList[_userAddress].username];\r\n            delete receiverList[_userAddress];\r\n        }\r\n        \r\n        emit UserDeleted(_userAddress, sender);\r\n    }\r\n\r\n    function verifyUser(address _userAddress, string memory _username, string memory _userID) public view returns (uint8) {\r\n        require((bytes(receiverList[_userAddress].username).length != 0) || (bytes(senderList[_userAddress].username).length != 0), \"User does not exist\");\r\n\r\n        if (keccak256(abi.encodePacked(receiverList[_userAddress].username)) == keccak256(abi.encodePacked(_username)) &&\r\n            keccak256(abi.encodePacked(receiverList[_userAddress].userID)) == keccak256(abi.encodePacked(_userID))) {\r\n            return 2;\r\n        } \r\n        if (keccak256(abi.encodePacked(senderList[_userAddress].username)) == keccak256(abi.encodePacked(_username)) &&\r\n            keccak256(abi.encodePacked(senderList[_userAddress].userID)) == keccak256(abi.encodePacked(_userID))) {\r\n            return 1;\r\n        }\r\n\r\n        return 0;\r\n    }\r\n\r\n    function addDocument(string memory _docname, string memory _ipfshash, string memory _docID, address _userAddress) public {\r\n        require(bytes(senderList[msg.sender].username).length != 0, \"account used is not sender\");\r\n\r\n        Document memory new_doc;\r\n        new_doc.docname = _docname;\r\n        new_doc.ipfshash = _ipfshash;\r\n        new_doc.docID = _docID;\r\n\r\n        docAccessList[_userAddress].push(new_doc);\r\n\r\n        emit DocumentAdded(msg.sender, _userAddress, _docname, _ipfshash, _docID);\r\n    }\r\n\r\n    function getDocCount(address _userAddress) public view returns (uint) {\r\n        return docAccessList[_userAddress].length;\r\n    }\r\n\r\n    function getDocuments(address _userAddress) public returns (string[] memory) {\r\n        if (msg.sender != _userAddress) {\r\n            emit AccessDenied(msg.sender, _userAddress, \"attempt to access denied\");\r\n            revert(\"attempt to access denied\");\r\n        }\r\n\r\n        uint docCount = docAccessList[_userAddress].length;\r\n        string[] memory docnames = new string[](docCount);\r\n\r\n        for (uint i = 0; i < docCount; i++) {\r\n            Document storage doc = docAccessList[_userAddress][i];\r\n            docnames[i] = doc.docname;\r\n        }\r\n\r\n        //emit DocumentAccessed(_userAddress, \"all documents\");\r\n        emit DocumentsListed(_userAddress, docnames);\r\n\r\n        return docnames;\r\n    }\r\n\r\n    function getIPFSHashFromDocname(address _userAddress, string memory _docname) public returns (string memory) {\r\n        require(msg.sender == _userAddress, \"attempt to access denied\");\r\n        \r\n\r\n        Document[] storage documents = docAccessList[_userAddress];\r\n\r\n        for (uint i = 0; i < documents.length; i++) {\r\n            if (keccak256(abi.encodePacked(documents[i].docname)) == keccak256(abi.encodePacked(_docname))) {\r\n                emit DocumentAccessed(_userAddress, _docname, documents[i].ipfshash);\r\n                //emit DocumentAccessedHash(_userAddress, documents[i].ipfshash);\r\n                return documents[i].ipfshash;\r\n            }\r\n        }\r\n\r\n        revert(\"Document ID not found\");\r\n    }\r\n}\r\n",
  "sourcePath": "C:\\Users\\alex_\\lawfer_root\\contracts\\Access_Control.sol",
  "compiler": {
    "name": "solc",
    "version": "0.5.16+commit.9c3226ce.Emscripten.clang"
  },
  "schemaVersion": "3.4.16",
  "updatedAt": "2024-07-22T03:39:28.737Z",
  "networkType": "ethereum",
  "devdoc": {
    "methods": {}
  },
  "userdoc": {
    "methods": {}
  }
}