{
  "contractName": "Access_Control",
  "abi": [
    {
      "inputs": [],
      "payable": false,
      "stateMutability": "nonpayable",
      "type": "constructor"
    },
    {
      "constant": true,
      "inputs": [
        {
          "internalType": "address",
          "name": "",
          "type": "address"
        },
        {
          "internalType": "uint256",
          "name": "",
          "type": "uint256"
        }
      ],
      "name": "docAccessList",
      "outputs": [
        {
          "internalType": "string",
          "name": "docname",
          "type": "string"
        },
        {
          "internalType": "string",
          "name": "ipfshash",
          "type": "string"
        },
        {
          "internalType": "string",
          "name": "docID",
          "type": "string"
        }
      ],
      "payable": false,
      "stateMutability": "view",
      "type": "function"
    },
    {
      "constant": true,
      "inputs": [],
      "name": "owner",
      "outputs": [
        {
          "internalType": "address",
          "name": "",
          "type": "address"
        }
      ],
      "payable": false,
      "stateMutability": "view",
      "type": "function"
    },
    {
      "constant": true,
      "inputs": [
        {
          "internalType": "address",
          "name": "",
          "type": "address"
        }
      ],
      "name": "senderList",
      "outputs": [
        {
          "internalType": "string",
          "name": "username",
          "type": "string"
        },
        {
          "internalType": "string",
          "name": "userID",
          "type": "string"
        },
        {
          "internalType": "address",
          "name": "useraddress",
          "type": "address"
        }
      ],
      "payable": false,
      "stateMutability": "view",
      "type": "function"
    },
    {
      "constant": true,
      "inputs": [
        {
          "internalType": "string",
          "name": "",
          "type": "string"
        }
      ],
      "name": "userFromName",
      "outputs": [
        {
          "internalType": "string",
          "name": "username",
          "type": "string"
        },
        {
          "internalType": "string",
          "name": "userID",
          "type": "string"
        },
        {
          "internalType": "address",
          "name": "useraddress",
          "type": "address"
        }
      ],
      "payable": false,
      "stateMutability": "view",
      "type": "function"
    },
    {
      "constant": true,
      "inputs": [
        {
          "internalType": "address",
          "name": "",
          "type": "address"
        }
      ],
      "name": "userList",
      "outputs": [
        {
          "internalType": "string",
          "name": "username",
          "type": "string"
        },
        {
          "internalType": "string",
          "name": "userID",
          "type": "string"
        },
        {
          "internalType": "address",
          "name": "useraddress",
          "type": "address"
        }
      ],
      "payable": false,
      "stateMutability": "view",
      "type": "function"
    },
    {
      "constant": true,
      "inputs": [
        {
          "internalType": "address",
          "name": "_add",
          "type": "address"
        }
      ],
      "name": "getuserList",
      "outputs": [
        {
          "internalType": "string",
          "name": "",
          "type": "string"
        },
        {
          "internalType": "string",
          "name": "",
          "type": "string"
        }
      ],
      "payable": false,
      "stateMutability": "view",
      "type": "function"
    },
    {
      "constant": false,
      "inputs": [
        {
          "internalType": "address",
          "name": "_userAddress",
          "type": "address"
        },
        {
          "internalType": "string",
          "name": "_username",
          "type": "string"
        },
        {
          "internalType": "string",
          "name": "_userID",
          "type": "string"
        },
        {
          "internalType": "bool",
          "name": "sender",
          "type": "bool"
        }
      ],
      "name": "addUser",
      "outputs": [],
      "payable": false,
      "stateMutability": "nonpayable",
      "type": "function"
    },
    {
      "constant": false,
      "inputs": [
        {
          "internalType": "address",
          "name": "_userAddress",
          "type": "address"
        },
        {
          "internalType": "bool",
          "name": "sender",
          "type": "bool"
        }
      ],
      "name": "deleteUser",
      "outputs": [],
      "payable": false,
      "stateMutability": "nonpayable",
      "type": "function"
    },
    {
      "constant": true,
      "inputs": [
        {
          "internalType": "address",
          "name": "_userAddress",
          "type": "address"
        },
        {
          "internalType": "string",
          "name": "_username",
          "type": "string"
        },
        {
          "internalType": "string",
          "name": "_userID",
          "type": "string"
        }
      ],
      "name": "verifyUser",
      "outputs": [
        {
          "internalType": "uint8",
          "name": "",
          "type": "uint8"
        }
      ],
      "payable": false,
      "stateMutability": "view",
      "type": "function"
    },
    {
      "constant": false,
      "inputs": [
        {
          "internalType": "string",
          "name": "_docname",
          "type": "string"
        },
        {
          "internalType": "string",
          "name": "_ipfshash",
          "type": "string"
        },
        {
          "internalType": "string",
          "name": "_docID",
          "type": "string"
        },
        {
          "internalType": "address",
          "name": "_userAddress",
          "type": "address"
        }
      ],
      "name": "addDocument",
      "outputs": [],
      "payable": false,
      "stateMutability": "nonpayable",
      "type": "function"
    },
    {
      "constant": true,
      "inputs": [
        {
          "internalType": "address",
          "name": "_userAddress",
          "type": "address"
        }
      ],
      "name": "getDocuments",
      "outputs": [
        {
          "internalType": "string[]",
          "name": "",
          "type": "string[]"
        }
      ],
      "payable": false,
      "stateMutability": "view",
      "type": "function"
    },
    {
      "constant": true,
      "inputs": [
        {
          "internalType": "address",
          "name": "_userAddress",
          "type": "address"
        },
        {
          "internalType": "string",
          "name": "_docname",
          "type": "string"
        }
      ],
      "name": "getIPFSHashFromDocname",
      "outputs": [
        {
          "internalType": "string",
          "name": "",
          "type": "string"
        }
      ],
      "payable": false,
      "stateMutability": "view",
      "type": "function"
    }
  ],
  "bytecode": "0x608060405234801561001057600080fd5b5033600460006101000a81548173ffffffffffffffffffffffffffffffffffffffff021916908373ffffffffffffffffffffffffffffffffffffffff160217905550612a29806100616000396000f3fe608060405234801561001057600080fd5b50600436106100b45760003560e01c806378c188c51161007157806378c188c5146101e057806387bc9fad146102105780638d3e5f2d1461022c5780638da5cb5b1461025e578063a6f59da11461027c578063f1de7ec814610298576100b4565b80630e365c75146100b9578063133f2513146100eb5780631b4e7bd21461011b57806321c7f28c1461014d57806327f50a2d1461017e578063412b294b146101ae575b600080fd5b6100d360048036036100ce91908101906120d6565b6102b4565b6040516100e293929190612657565b60405180910390f35b61010560048036036101009190810190611f34565b610444565b60405161011291906125fe565b60405180910390f35b61013560048036036101309190810190611ecf565b610687565b60405161014493929190612657565b60405180910390f35b61016760048036036101629190810190611ecf565b610801565b604051610175929190612620565b60405180910390f35b61019860048036036101939190810190611ecf565b610a57565b6040516101a591906125dc565b60405180910390f35b6101c860048036036101c3919081019061209a565b610c7e565b6040516101d79392919061269c565b60405180910390f35b6101fa60048036036101f59190810190611f88565b610e8a565b60405161020791906127c8565b60405180910390f35b61022a60048036036102259190810190611ef8565b6111fc565b005b61024660048036036102419190810190611ecf565b611559565b60405161025593929190612657565b60405180910390f35b6102666116d3565b60405161027391906125c1565b60405180910390f35b61029660048036036102919190810190612117565b6116f9565b005b6102b260048036036102ad9190810190612007565b611882565b005b600281805160208101820180518482526020830160208501208183528095505050505050600091509050806000018054600181600116156101000203166002900480601f0160208091040260200160405190810160405280929190818152602001828054600181600116156101000203166002900480156103765780601f1061034b57610100808354040283529160200191610376565b820191906000526020600020905b81548152906001019060200180831161035957829003601f168201915b505050505090806001018054600181600116156101000203166002900480601f0160208091040260200160405190810160405280929190818152602001828054600181600116156101000203166002900480156104145780601f106103e957610100808354040283529160200191610414565b820191906000526020600020905b8154815290600101906020018083116103f757829003601f168201915b5050505050908060020160009054906101000a900473ffffffffffffffffffffffffffffffffffffffff16905083565b60608273ffffffffffffffffffffffffffffffffffffffff163373ffffffffffffffffffffffffffffffffffffffff16146104b4576040517f08c379a00000000000000000000000000000000000000000000000000000000081526004016104ab90612728565b60405180910390fd5b6000600360008573ffffffffffffffffffffffffffffffffffffffff1673ffffffffffffffffffffffffffffffffffffffff168152602001908152602001600020905060008090505b8180549050811015610645578360405160200161051a9190612593565b6040516020818303038152906040528051906020012082828154811061053c57fe5b906000526020600020906003020160000160405160200161055d91906125aa565b6040516020818303038152906040528051906020012014156106385781818154811061058557fe5b90600052602060002090600302016001018054600181600116156101000203166002900480601f01602080910402602001604051908101604052809291908181526020018280546001816001161561010002031660029004801561062a5780601f106105ff5761010080835404028352916020019161062a565b820191906000526020600020905b81548152906001019060200180831161060d57829003601f168201915b505050505092505050610681565b80806001019150506104fd565b506040517f08c379a000000000000000000000000000000000000000000000000000000000815260040161067890612768565b60405180910390fd5b92915050565b6000602052806000526040600020600091509050806000018054600181600116156101000203166002900480601f0160208091040260200160405190810160405280929190818152602001828054600181600116156101000203166002900480156107335780601f1061070857610100808354040283529160200191610733565b820191906000526020600020905b81548152906001019060200180831161071657829003601f168201915b505050505090806001018054600181600116156101000203166002900480601f0160208091040260200160405190810160405280929190818152602001828054600181600116156101000203166002900480156107d15780601f106107a6576101008083540402835291602001916107d1565b820191906000526020600020905b8154815290600101906020018083116107b457829003601f168201915b5050505050908060020160009054906101000a900473ffffffffffffffffffffffffffffffffffffffff16905083565b606080600460009054906101000a900473ffffffffffffffffffffffffffffffffffffffff1673ffffffffffffffffffffffffffffffffffffffff163373ffffffffffffffffffffffffffffffffffffffff1614610894576040517f08c379a000000000000000000000000000000000000000000000000000000000815260040161088b906126e8565b60405180910390fd5b6000808473ffffffffffffffffffffffffffffffffffffffff1673ffffffffffffffffffffffffffffffffffffffff1681526020019081526020016000206000016000808573ffffffffffffffffffffffffffffffffffffffff1673ffffffffffffffffffffffffffffffffffffffff168152602001908152602001600020600101818054600181600116156101000203166002900480601f0160208091040260200160405190810160405280929190818152602001828054600181600116156101000203166002900480156109ab5780601f10610980576101008083540402835291602001916109ab565b820191906000526020600020905b81548152906001019060200180831161098e57829003601f168201915b50505050509150808054600181600116156101000203166002900480601f016020809104026020016040519081016040528092919081815260200182805460018160011615610100020316600290048015610a475780601f10610a1c57610100808354040283529160200191610a47565b820191906000526020600020905b815481529060010190602001808311610a2a57829003601f168201915b5050505050905091509150915091565b60608173ffffffffffffffffffffffffffffffffffffffff163373ffffffffffffffffffffffffffffffffffffffff1614610ac7576040517f08c379a0000000000000000000000000000000000000000000000000000000008152600401610abe90612728565b60405180910390fd5b6000600360008473ffffffffffffffffffffffffffffffffffffffff1673ffffffffffffffffffffffffffffffffffffffff168152602001908152602001600020805490509050606081604051908082528060200260200182016040528015610b4457816020015b6060815260200190600190039081610b2f5790505b50905060008090505b82811015610c73576000600360008773ffffffffffffffffffffffffffffffffffffffff1673ffffffffffffffffffffffffffffffffffffffff1681526020019081526020016000208281548110610ba157fe5b90600052602060002090600302019050806000018054600181600116156101000203166002900480601f016020809104026020016040519081016040528092919081815260200182805460018160011615610100020316600290048015610c495780601f10610c1e57610100808354040283529160200191610c49565b820191906000526020600020905b815481529060010190602001808311610c2c57829003601f168201915b5050505050838381518110610c5a57fe5b6020026020010181905250508080600101915050610b4d565b508092505050919050565b60036020528160005260406000208181548110610c9757fe5b906000526020600020906003020160009150915050806000018054600181600116156101000203166002900480601f016020809104026020016040519081016040528092919081815260200182805460018160011615610100020316600290048015610d445780601f10610d1957610100808354040283529160200191610d44565b820191906000526020600020905b815481529060010190602001808311610d2757829003601f168201915b505050505090806001018054600181600116156101000203166002900480601f016020809104026020016040519081016040528092919081815260200182805460018160011615610100020316600290048015610de25780601f10610db757610100808354040283529160200191610de2565b820191906000526020600020905b815481529060010190602001808311610dc557829003601f168201915b505050505090806002018054600181600116156101000203166002900480601f016020809104026020016040519081016040528092919081815260200182805460018160011615610100020316600290048015610e805780601f10610e5557610100808354040283529160200191610e80565b820191906000526020600020905b815481529060010190602001808311610e6357829003601f168201915b5050505050905083565b6000806000808673ffffffffffffffffffffffffffffffffffffffff1673ffffffffffffffffffffffffffffffffffffffff168152602001908152602001600020600001805460018160011615610100020316600290049050141580610f4757506000600160008673ffffffffffffffffffffffffffffffffffffffff1673ffffffffffffffffffffffffffffffffffffffff16815260200190815260200160002060000180546001816001161561010002031660029004905014155b610f86576040517f08c379a0000000000000000000000000000000000000000000000000000000008152600401610f7d90612788565b60405180910390fd5b82604051602001610f979190612593565b604051602081830303815290604052805190602001206000808673ffffffffffffffffffffffffffffffffffffffff1673ffffffffffffffffffffffffffffffffffffffff168152602001908152602001600020600001604051602001610ffe91906125aa565b604051602081830303815290604052805190602001201480156110ac57508160405160200161102d9190612593565b604051602081830303815290604052805190602001206000808673ffffffffffffffffffffffffffffffffffffffff1673ffffffffffffffffffffffffffffffffffffffff16815260200190815260200160002060010160405160200161109491906125aa565b60405160208183030381529060405280519060200120145b156110ba57600290506111f5565b826040516020016110cb9190612593565b60405160208183030381529060405280519060200120600160008673ffffffffffffffffffffffffffffffffffffffff1673ffffffffffffffffffffffffffffffffffffffff16815260200190815260200160002060000160405160200161113391906125aa565b604051602081830303815290604052805190602001201480156111e25750816040516020016111629190612593565b60405160208183030381529060405280519060200120600160008673ffffffffffffffffffffffffffffffffffffffff1673ffffffffffffffffffffffffffffffffffffffff1681526020019081526020016000206001016040516020016111ca91906125aa565b60405160208183030381529060405280519060200120145b156111f057600190506111f5565b600090505b9392505050565b600460009054906101000a900473ffffffffffffffffffffffffffffffffffffffff1673ffffffffffffffffffffffffffffffffffffffff163373ffffffffffffffffffffffffffffffffffffffff161461128c576040517f08c379a0000000000000000000000000000000000000000000000000000000008152600401611283906126e8565b60405180910390fd5b8080156112f057506000600160008473ffffffffffffffffffffffffffffffffffffffff1673ffffffffffffffffffffffffffffffffffffffff16815260200190815260200160002060000180546001816001161561010002031660029004905014155b80611351575060008060008473ffffffffffffffffffffffffffffffffffffffff1673ffffffffffffffffffffffffffffffffffffffff16815260200190815260200160002060000180546001816001161561010002031660029004905014155b611390576040517f08c379a000000000000000000000000000000000000000000000000000000000815260040161138790612708565b60405180910390fd5b801561142457600160008373ffffffffffffffffffffffffffffffffffffffff1673ffffffffffffffffffffffffffffffffffffffff168152602001908152602001600020600080820160006113e69190611ca3565b6001820160006113f69190611ca3565b6002820160006101000a81549073ffffffffffffffffffffffffffffffffffffffff02191690555050611555565b60026000808473ffffffffffffffffffffffffffffffffffffffff1673ffffffffffffffffffffffffffffffffffffffff16815260200190815260200160002060000160405161147491906125aa565b9081526020016040518091039020600080820160006114939190611ca3565b6001820160006114a39190611ca3565b6002820160006101000a81549073ffffffffffffffffffffffffffffffffffffffff021916905550506000808373ffffffffffffffffffffffffffffffffffffffff1673ffffffffffffffffffffffffffffffffffffffff1681526020019081526020016000206000808201600061151b9190611ca3565b60018201600061152b9190611ca3565b6002820160006101000a81549073ffffffffffffffffffffffffffffffffffffffff021916905550505b5050565b6001602052806000526040600020600091509050806000018054600181600116156101000203166002900480601f0160208091040260200160405190810160405280929190818152602001828054600181600116156101000203166002900480156116055780601f106115da57610100808354040283529160200191611605565b820191906000526020600020905b8154815290600101906020018083116115e857829003601f168201915b505050505090806001018054600181600116156101000203166002900480601f0160208091040260200160405190810160405280929190818152602001828054600181600116156101000203166002900480156116a35780601f10611678576101008083540402835291602001916116a3565b820191906000526020600020905b81548152906001019060200180831161168657829003601f168201915b5050505050908060020160009054906101000a900473ffffffffffffffffffffffffffffffffffffffff16905083565b600460009054906101000a900473ffffffffffffffffffffffffffffffffffffffff1681565b6000600160003373ffffffffffffffffffffffffffffffffffffffff1673ffffffffffffffffffffffffffffffffffffffff1681526020019081526020016000206000018054600181600116156101000203166002900490501415611793576040517f08c379a000000000000000000000000000000000000000000000000000000000815260040161178a906127a8565b60405180910390fd5b61179b611ceb565b848160000181905250838160200181905250828160400181905250600360008373ffffffffffffffffffffffffffffffffffffffff1673ffffffffffffffffffffffffffffffffffffffff1681526020019081526020016000208190806001815401808255809150509060018203906000526020600020906003020160009091929091909150600082015181600001908051906020019061183d929190611d0c565b50602082015181600101908051906020019061185a929190611d0c565b506040820151816002019080519060200190611877929190611d0c565b505050505050505050565b600460009054906101000a900473ffffffffffffffffffffffffffffffffffffffff1673ffffffffffffffffffffffffffffffffffffffff163373ffffffffffffffffffffffffffffffffffffffff1614611912576040517f08c379a0000000000000000000000000000000000000000000000000000000008152600401611909906126e8565b60405180910390fd5b80801561197557506000600160008673ffffffffffffffffffffffffffffffffffffffff1673ffffffffffffffffffffffffffffffffffffffff168152602001908152602001600020600001805460018160011615610100020316600290049050145b806119d5575060008060008673ffffffffffffffffffffffffffffffffffffffff1673ffffffffffffffffffffffffffffffffffffffff168152602001908152602001600020600001805460018160011615610100020316600290049050145b611a14576040517f08c379a0000000000000000000000000000000000000000000000000000000008152600401611a0b90612748565b60405180910390fd5b611a1c611d8c565b83816000018190525082816020018190525084816040019073ffffffffffffffffffffffffffffffffffffffff16908173ffffffffffffffffffffffffffffffffffffffff16815250508115611b355780600160008773ffffffffffffffffffffffffffffffffffffffff1673ffffffffffffffffffffffffffffffffffffffff1681526020019081526020016000206000820151816000019080519060200190611ac8929190611d0c565b506020820151816001019080519060200190611ae5929190611d0c565b5060408201518160020160006101000a81548173ffffffffffffffffffffffffffffffffffffffff021916908373ffffffffffffffffffffffffffffffffffffffff160217905550905050611c9c565b80600285604051611b469190612593565b90815260200160405180910390206000820151816000019080519060200190611b70929190611d0c565b506020820151816001019080519060200190611b8d929190611d0c565b5060408201518160020160006101000a81548173ffffffffffffffffffffffffffffffffffffffff021916908373ffffffffffffffffffffffffffffffffffffffff160217905550905050806000808773ffffffffffffffffffffffffffffffffffffffff1673ffffffffffffffffffffffffffffffffffffffff1681526020019081526020016000206000820151816000019080519060200190611c33929190611d0c565b506020820151816001019080519060200190611c50929190611d0c565b5060408201518160020160006101000a81548173ffffffffffffffffffffffffffffffffffffffff021916908373ffffffffffffffffffffffffffffffffffffffff1602179055509050505b5050505050565b50805460018160011615610100020316600290046000825580601f10611cc95750611ce8565b601f016020900490600052602060002090810190611ce79190611dc3565b5b50565b60405180606001604052806060815260200160608152602001606081525090565b828054600181600116156101000203166002900490600052602060002090601f016020900481019282601f10611d4d57805160ff1916838001178555611d7b565b82800160010185558215611d7b579182015b82811115611d7a578251825591602001919060010190611d5f565b5b509050611d889190611dc3565b5090565b60405180606001604052806060815260200160608152602001600073ffffffffffffffffffffffffffffffffffffffff1681525090565b611de591905b80821115611de1576000816000905550600101611dc9565b5090565b90565b600081359050611df7816129a1565b92915050565b600081359050611e0c816129b8565b92915050565b600082601f830112611e2357600080fd5b8135611e36611e3182612810565b6127e3565b91508082526020830160208301858383011115611e5257600080fd5b611e5d83828461294e565b50505092915050565b600082601f830112611e7757600080fd5b8135611e8a611e858261283c565b6127e3565b91508082526020830160208301858383011115611ea657600080fd5b611eb183828461294e565b50505092915050565b600081359050611ec9816129cf565b92915050565b600060208284031215611ee157600080fd5b6000611eef84828501611de8565b91505092915050565b60008060408385031215611f0b57600080fd5b6000611f1985828601611de8565b9250506020611f2a85828601611dfd565b9150509250929050565b60008060408385031215611f4757600080fd5b6000611f5585828601611de8565b925050602083013567ffffffffffffffff811115611f7257600080fd5b611f7e85828601611e66565b9150509250929050565b600080600060608486031215611f9d57600080fd5b6000611fab86828701611de8565b935050602084013567ffffffffffffffff811115611fc857600080fd5b611fd486828701611e66565b925050604084013567ffffffffffffffff811115611ff157600080fd5b611ffd86828701611e66565b9150509250925092565b6000806000806080858703121561201d57600080fd5b600061202b87828801611de8565b945050602085013567ffffffffffffffff81111561204857600080fd5b61205487828801611e66565b935050604085013567ffffffffffffffff81111561207157600080fd5b61207d87828801611e66565b925050606061208e87828801611dfd565b91505092959194509250565b600080604083850312156120ad57600080fd5b60006120bb85828601611de8565b92505060206120cc85828601611eba565b9150509250929050565b6000602082840312156120e857600080fd5b600082013567ffffffffffffffff81111561210257600080fd5b61210e84828501611e12565b91505092915050565b6000806000806080858703121561212d57600080fd5b600085013567ffffffffffffffff81111561214757600080fd5b61215387828801611e66565b945050602085013567ffffffffffffffff81111561217057600080fd5b61217c87828801611e66565b935050604085013567ffffffffffffffff81111561219957600080fd5b6121a587828801611e66565b92505060606121b687828801611de8565b91505092959194509250565b60006121ce83836122c4565b905092915050565b6121df816128f9565b82525050565b60006121f08261288d565b6121fa81856128bb565b93508360208202850161220c85612868565b8060005b85811015612248578484038952815161222985826121c2565b9450612234836128ae565b925060208a01995050600181019050612210565b50829750879550505050505092915050565b6000612265826128a3565b61226f81856128dd565b935061227f81856020860161295d565b61228881612990565b840191505092915050565b600061229e826128a3565b6122a881856128ee565b93506122b881856020860161295d565b80840191505092915050565b60006122cf82612898565b6122d981856128cc565b93506122e981856020860161295d565b6122f281612990565b840191505092915050565b600061230882612898565b61231281856128dd565b935061232281856020860161295d565b61232b81612990565b840191505092915050565b6000815460018116600081146123535760018114612378576123bc565b607f600283041661236481876128ee565b955060ff19831686528086019350506123bc565b6002820461238681876128ee565b955061239185612878565b60005b828110156123b357815481890152600182019150602081019050612394565b82880195505050505b505092915050565b60006123d16017836128dd565b91507f43616c6c6572206973206e6f7420746865206f776e65720000000000000000006000830152602082019050919050565b6000612411601a836128dd565b91507f757365722f73656e64657220646f6573206e6f742065786973740000000000006000830152602082019050919050565b60006124516018836128dd565b91507f617474656d707420746f206163636573732064656e69656400000000000000006000830152602082019050919050565b6000612491601a836128dd565b91507f73656e6465722f7573657220616c7265616479206578697374730000000000006000830152602082019050919050565b60006124d16015836128dd565b91507f446f63756d656e74204944206e6f7420666f756e6400000000000000000000006000830152602082019050919050565b60006125116013836128dd565b91507f5573657220646f6573206e6f74206578697374000000000000000000000000006000830152602082019050919050565b6000612551601a836128dd565b91507f6163636f756e742075736564206973206e6f742073656e6465720000000000006000830152602082019050919050565b61258d81612941565b82525050565b600061259f8284612293565b915081905092915050565b60006125b68284612336565b915081905092915050565b60006020820190506125d660008301846121d6565b92915050565b600060208201905081810360008301526125f681846121e5565b905092915050565b60006020820190508181036000830152612618818461225a565b905092915050565b6000604082019050818103600083015261263a818561225a565b9050818103602083015261264e818461225a565b90509392505050565b6000606082019050818103600083015261267181866122fd565b9050818103602083015261268581856122fd565b905061269460408301846121d6565b949350505050565b600060608201905081810360008301526126b681866122fd565b905081810360208301526126ca81856122fd565b905081810360408301526126de81846122fd565b9050949350505050565b60006020820190508181036000830152612701816123c4565b9050919050565b6000602082019050818103600083015261272181612404565b9050919050565b6000602082019050818103600083015261274181612444565b9050919050565b6000602082019050818103600083015261276181612484565b9050919050565b60006020820190508181036000830152612781816124c4565b9050919050565b600060208201905081810360008301526127a181612504565b9050919050565b600060208201905081810360008301526127c181612544565b9050919050565b60006020820190506127dd6000830184612584565b92915050565b6000604051905081810181811067ffffffffffffffff8211171561280657600080fd5b8060405250919050565b600067ffffffffffffffff82111561282757600080fd5b601f19601f8301169050602081019050919050565b600067ffffffffffffffff82111561285357600080fd5b601f19601f8301169050602081019050919050565b6000819050602082019050919050565b60008190508160005260206000209050919050565b600081519050919050565b600081519050919050565b600081519050919050565b6000602082019050919050565b600082825260208201905092915050565b600082825260208201905092915050565b600082825260208201905092915050565b600081905092915050565b600061290482612917565b9050919050565b60008115159050919050565b600073ffffffffffffffffffffffffffffffffffffffff82169050919050565b6000819050919050565b600060ff82169050919050565b82818337600083830152505050565b60005b8381101561297b578082015181840152602081019050612960565b8381111561298a576000848401525b50505050565b6000601f19601f8301169050919050565b6129aa816128f9565b81146129b557600080fd5b50565b6129c18161290b565b81146129cc57600080fd5b50565b6129d881612937565b81146129e357600080fd5b5056fea365627a7a72315820e51ab27bf1be76abb6ee3f2bfdc3990f68b3f895d3fd2e77b6d2b63ac57d0ba46c6578706572696d656e74616cf564736f6c63430005100040",
  "source": "pragma solidity ^0.5.16;\r\npragma experimental ABIEncoderV2;\r\n\r\ncontract Access_Control{\r\nstruct User{\r\nstring username;\r\nstring userID;\r\naddress useraddress;\r\n\r\n}\r\n// struct Sender {\r\n//         string username;\r\n//         string sendID;\r\n// }\r\nstruct Document{\r\n    string docname;\r\n    string ipfshash;\r\n    string docID;\r\n\r\n}\r\nmapping(address=>User) public userList;\r\n//mapping(address => Sender) public senderList;\r\nmapping(address => User) public senderList;\r\nmapping(string=>User) public userFromName;\r\n\r\nmapping(address=>Document[]) public docAccessList;\r\naddress public owner;\r\nconstructor() public{\r\n    owner=msg.sender;\r\n}\r\n\r\nmodifier onlyOwner() {\r\n    require(msg.sender == owner, \"Caller is not the owner\");\r\n    _;\r\n}\r\n\r\nfunction getuserList(address _add) public view onlyOwner returns(string memory, string memory){\r\n    return (userList[_add].username, userList[_add].userID);\r\n}\r\nfunction addUser (address _userAddress, string memory _username, string memory _userID, bool sender) public onlyOwner(){\r\n\r\n    require((sender && bytes(senderList[_userAddress].username).length == 0) || \r\n        (bytes(userList[_userAddress].username).length == 0), \r\n        \"sender/user already exists\");\r\n\r\n    //require(bytes(userList[_userAddress].username).length == 0, \"User already exists\");\r\n\r\n    User memory new_user;\r\n    new_user.username=_username;\r\n    new_user.userID=_userID;\r\n    new_user.useraddress=_userAddress;\r\n    if (sender){\r\n        senderList[_userAddress]=new_user;\r\n    }\r\n    else{\r\n        userFromName[_username]=new_user;\r\n        userList[_userAddress]=new_user;\r\n    }\r\n    \r\n}\r\nfunction deleteUser (address _userAddress, bool sender) public onlyOwner()\r\n{\r\n    require(sender && (bytes(senderList[_userAddress].username).length != 0)||\r\n    (bytes(userList[_userAddress].username).length != 0), \"user/sender does not exist\"\r\n    );\r\n    if(sender)\r\n    {\r\n       delete senderList[_userAddress]; \r\n    }\r\n    else{\r\n        delete userFromName[userList[_userAddress].username];\r\n        delete userList[_userAddress];\r\n    }\r\n    \r\n}\r\n\r\n\r\n//returns 0 for unverified, 1 for sender, 2 for user\r\nfunction verifyUser(address _userAddress, string memory _username, string memory _userID) public view returns (uint8) {\r\n    require((bytes(userList[_userAddress].username).length != 0)||(bytes(senderList[_userAddress].username).length != 0), \"User does not exist\");\r\n    if (keccak256(abi.encodePacked(userList[_userAddress].username)) == keccak256(abi.encodePacked(_username)) &&\r\n        keccak256(abi.encodePacked(userList[_userAddress].userID)) == keccak256(abi.encodePacked(_userID))) {\r\n        return 2;\r\n    }  if(keccak256(abi.encodePacked(senderList[_userAddress].username)) == keccak256(abi.encodePacked(_username)) &&\r\n        keccak256(abi.encodePacked(senderList[_userAddress].userID)) == keccak256(abi.encodePacked(_userID))) {\r\n        return 1;\r\n    }\r\n    return 0;\r\n}\r\n// function addSender(address _senderAddress, string memory _senderName, string memory _senderID) public onlyOwner() {\r\n//         require(bytes(senderList[_senderAddress].username).length == 0, \"Sender already exists\");\r\n//         Sender memory new_sender;\r\n//         new_sender.username = _senderName;\r\n//         senderList[_senderAddress] = new_sender;\r\n//     }\r\n\r\n//     function deleteSender(address _senderAddress) public onlyOwner() {\r\n//         require(bytes(senderList[_senderAddress].username).length != 0, \"Sender does not exist\");\r\n//         delete senderList[_senderAddress];\r\n//     }\r\n\r\n//     function verifySender(address _senderAddress, string memory _senderName) public view returns (bool) {\r\n//         require(bytes(senderList[_senderAddress].username).length != 0, \"Sender does not exist\");\r\n//         if (keccak256(abi.encodePacked(senderList[_senderAddress].username)) == keccak256(abi.encodePacked(_senderName))) {\r\n//             return true;\r\n//         } else {\r\n//             return false;\r\n//         }\r\n//     }\r\n    function addDocument(string memory _docname, string memory _ipfshash, string memory _docID, address _userAddress) public\r\n    {\r\n        require(bytes(senderList[msg.sender].username).length != 0, \"account used is not sender\");\r\n        Document memory new_doc;\r\n        new_doc.docname = _docname;\r\n        new_doc.ipfshash=_ipfshash;\r\n        new_doc.docID = _docID;\r\n        docAccessList[_userAddress].push(new_doc);\r\n    }\r\n    function getDocuments(address _userAddress) public view returns (string[] memory) {\r\n        require(msg.sender==_userAddress,\"attempt to access denied\");\r\n        uint docCount = docAccessList[_userAddress].length;\r\n        //string[] memory ipfshashes = new string[](docCount);\r\n        string[] memory docnames = new string[](docCount);\r\n        //string[] memory docIds = new string[](docCount);\r\n\r\n        for (uint i = 0; i < docCount; i++) {\r\n            Document storage doc = docAccessList[_userAddress][i];\r\n            docnames[i] = doc.docname;\r\n            //docIds[i] = doc.docID;\r\n        }\r\n\r\n        return (docnames);\r\n    }\r\n    function getIPFSHashFromDocname(address _userAddress, string memory _docname) public view returns (string memory) {\r\n        require(msg.sender == _userAddress, \"attempt to access denied\");\r\n        Document[] storage documents = docAccessList[_userAddress];\r\n\r\n        for (uint i = 0; i < documents.length; i++) {\r\n            if (keccak256(abi.encodePacked(documents[i].docname)) == keccak256(abi.encodePacked(_docname))) {\r\n                return documents[i].ipfshash;\r\n            }\r\n        }\r\n        revert(\"Document ID not found\");\r\n    }\r\n\r\n    }\r\n",
  "sourcePath": "C:\\Users\\alex_\\lawfer_root\\contracts\\Access_Control.sol",
  "compiler": {
    "name": "solc",
    "version": "0.5.16+commit.9c3226ce.Emscripten.clang"
  },
  "schemaVersion": "3.4.16",
  "updatedAt": "2024-07-14T08:59:40.642Z",
  "networkType": "ethereum",
  "devdoc": {
    "methods": {}
  },
  "userdoc": {
    "methods": {}
  }
}