{
  "contractName": "Access_Control",
  "abi": [
    {
      "inputs": [],
      "payable": false,
      "stateMutability": "nonpayable",
      "type": "constructor"
    },
    {
      "anonymous": false,
      "inputs": [
        {
          "indexed": false,
          "internalType": "address",
          "name": "sender",
          "type": "address"
        },
        {
          "indexed": false,
          "internalType": "address",
          "name": "userAddress",
          "type": "address"
        },
        {
          "indexed": false,
          "internalType": "string",
          "name": "message",
          "type": "string"
        }
      ],
      "name": "AccessDenied",
      "type": "event"
    },
    {
      "anonymous": false,
      "inputs": [
        {
          "indexed": false,
          "internalType": "address",
          "name": "userAddress",
          "type": "address"
        },
        {
          "indexed": false,
          "internalType": "string",
          "name": "docname",
          "type": "string"
        },
        {
          "indexed": false,
          "internalType": "string",
          "name": "dochash",
          "type": "string"
        }
      ],
      "name": "DocumentAccessed",
      "type": "event"
    },
    {
      "anonymous": false,
      "inputs": [
        {
          "indexed": false,
          "internalType": "address",
          "name": "sender",
          "type": "address"
        },
        {
          "indexed": false,
          "internalType": "address",
          "name": "userAddress",
          "type": "address"
        },
        {
          "indexed": false,
          "internalType": "string",
          "name": "docname",
          "type": "string"
        },
        {
          "indexed": false,
          "internalType": "string",
          "name": "ipfshash",
          "type": "string"
        },
        {
          "indexed": false,
          "internalType": "string",
          "name": "docID",
          "type": "string"
        }
      ],
      "name": "DocumentAdded",
      "type": "event"
    },
    {
      "anonymous": false,
      "inputs": [
        {
          "indexed": false,
          "internalType": "address",
          "name": "userAdress",
          "type": "address"
        },
        {
          "indexed": false,
          "internalType": "string[]",
          "name": "docnames",
          "type": "string[]"
        }
      ],
      "name": "DocumentsListed",
      "type": "event"
    },
    {
      "anonymous": false,
      "inputs": [
        {
          "indexed": false,
          "internalType": "address",
          "name": "userAddress",
          "type": "address"
        },
        {
          "indexed": false,
          "internalType": "string",
          "name": "username",
          "type": "string"
        },
        {
          "indexed": false,
          "internalType": "string",
          "name": "userID",
          "type": "string"
        },
        {
          "indexed": false,
          "internalType": "bool",
          "name": "sender",
          "type": "bool"
        }
      ],
      "name": "UserAdded",
      "type": "event"
    },
    {
      "anonymous": false,
      "inputs": [
        {
          "indexed": false,
          "internalType": "address",
          "name": "userAddress",
          "type": "address"
        },
        {
          "indexed": false,
          "internalType": "bool",
          "name": "sender",
          "type": "bool"
        }
      ],
      "name": "UserDeleted",
      "type": "event"
    },
    {
      "constant": true,
      "inputs": [
        {
          "internalType": "address",
          "name": "",
          "type": "address"
        },
        {
          "internalType": "uint256",
          "name": "",
          "type": "uint256"
        }
      ],
      "name": "docAccessList",
      "outputs": [
        {
          "internalType": "string",
          "name": "docname",
          "type": "string"
        },
        {
          "internalType": "string",
          "name": "ipfshash",
          "type": "string"
        },
        {
          "internalType": "string",
          "name": "docID",
          "type": "string"
        }
      ],
      "payable": false,
      "stateMutability": "view",
      "type": "function"
    },
    {
      "constant": true,
      "inputs": [],
      "name": "owner",
      "outputs": [
        {
          "internalType": "address",
          "name": "",
          "type": "address"
        }
      ],
      "payable": false,
      "stateMutability": "view",
      "type": "function"
    },
    {
      "constant": true,
      "inputs": [
        {
          "internalType": "address",
          "name": "",
          "type": "address"
        }
      ],
      "name": "receiverList",
      "outputs": [
        {
          "internalType": "string",
          "name": "username",
          "type": "string"
        },
        {
          "internalType": "string",
          "name": "userID",
          "type": "string"
        },
        {
          "internalType": "address",
          "name": "useraddress",
          "type": "address"
        }
      ],
      "payable": false,
      "stateMutability": "view",
      "type": "function"
    },
    {
      "constant": true,
      "inputs": [
        {
          "internalType": "address",
          "name": "",
          "type": "address"
        }
      ],
      "name": "senderList",
      "outputs": [
        {
          "internalType": "string",
          "name": "username",
          "type": "string"
        },
        {
          "internalType": "string",
          "name": "userID",
          "type": "string"
        },
        {
          "internalType": "address",
          "name": "useraddress",
          "type": "address"
        }
      ],
      "payable": false,
      "stateMutability": "view",
      "type": "function"
    },
    {
      "constant": true,
      "inputs": [
        {
          "internalType": "string",
          "name": "",
          "type": "string"
        }
      ],
      "name": "userFromName",
      "outputs": [
        {
          "internalType": "string",
          "name": "username",
          "type": "string"
        },
        {
          "internalType": "string",
          "name": "userID",
          "type": "string"
        },
        {
          "internalType": "address",
          "name": "useraddress",
          "type": "address"
        }
      ],
      "payable": false,
      "stateMutability": "view",
      "type": "function"
    },
    {
      "constant": true,
      "inputs": [
        {
          "internalType": "address",
          "name": "_add",
          "type": "address"
        }
      ],
      "name": "getuserList",
      "outputs": [
        {
          "internalType": "string",
          "name": "",
          "type": "string"
        },
        {
          "internalType": "string",
          "name": "",
          "type": "string"
        }
      ],
      "payable": false,
      "stateMutability": "view",
      "type": "function"
    },
    {
      "constant": false,
      "inputs": [
        {
          "internalType": "address",
          "name": "_userAddress",
          "type": "address"
        },
        {
          "internalType": "string",
          "name": "_username",
          "type": "string"
        },
        {
          "internalType": "string",
          "name": "_userID",
          "type": "string"
        },
        {
          "internalType": "bool",
          "name": "sender",
          "type": "bool"
        }
      ],
      "name": "addUser",
      "outputs": [],
      "payable": false,
      "stateMutability": "nonpayable",
      "type": "function"
    },
    {
      "constant": false,
      "inputs": [
        {
          "internalType": "address",
          "name": "_userAddress",
          "type": "address"
        },
        {
          "internalType": "bool",
          "name": "sender",
          "type": "bool"
        }
      ],
      "name": "deleteUser",
      "outputs": [],
      "payable": false,
      "stateMutability": "nonpayable",
      "type": "function"
    },
    {
      "constant": true,
      "inputs": [
        {
          "internalType": "address",
          "name": "_userAddress",
          "type": "address"
        },
        {
          "internalType": "string",
          "name": "_username",
          "type": "string"
        },
        {
          "internalType": "string",
          "name": "_userID",
          "type": "string"
        }
      ],
      "name": "verifyUser",
      "outputs": [
        {
          "internalType": "uint8",
          "name": "",
          "type": "uint8"
        }
      ],
      "payable": false,
      "stateMutability": "view",
      "type": "function"
    },
    {
      "constant": false,
      "inputs": [
        {
          "internalType": "string",
          "name": "_docname",
          "type": "string"
        },
        {
          "internalType": "string",
          "name": "_ipfshash",
          "type": "string"
        },
        {
          "internalType": "string",
          "name": "_docID",
          "type": "string"
        },
        {
          "internalType": "address",
          "name": "_userAddress",
          "type": "address"
        }
      ],
      "name": "addDocument",
      "outputs": [],
      "payable": false,
      "stateMutability": "nonpayable",
      "type": "function"
    },
    {
      "constant": true,
      "inputs": [
        {
          "internalType": "address",
          "name": "_userAddress",
          "type": "address"
        }
      ],
      "name": "getDocCount",
      "outputs": [
        {
          "internalType": "uint256",
          "name": "",
          "type": "uint256"
        }
      ],
      "payable": false,
      "stateMutability": "view",
      "type": "function"
    },
    {
      "constant": false,
      "inputs": [
        {
          "internalType": "address",
          "name": "_userAddress",
          "type": "address"
        }
      ],
      "name": "getDocuments",
      "outputs": [
        {
          "internalType": "string[]",
          "name": "",
          "type": "string[]"
        }
      ],
      "payable": false,
      "stateMutability": "nonpayable",
      "type": "function"
    },
    {
      "constant": false,
      "inputs": [
        {
          "internalType": "address",
          "name": "_userAddress",
          "type": "address"
        },
        {
          "internalType": "string",
          "name": "_docname",
          "type": "string"
        }
      ],
      "name": "getIPFSHashFromDocname",
      "outputs": [
        {
          "internalType": "string",
          "name": "",
          "type": "string"
        }
      ],
      "payable": false,
      "stateMutability": "nonpayable",
      "type": "function"
    }
  ],
  "bytecode": "0x608060405234801561001057600080fd5b5033600460006101000a81548173ffffffffffffffffffffffffffffffffffffffff021916908373ffffffffffffffffffffffffffffffffffffffff160217905550612ee0806100616000396000f3fe608060405234801561001057600080fd5b50600436106100cf5760003560e01c806378c188c51161008c5780638da5cb5b116100665780638da5cb5b146102775780639cd4cf0214610295578063a6f59da1146102c7578063f1de7ec8146102e3576100cf565b806378c188c5146101f957806387bc9fad146102295780638d3e5f2d14610245576100cf565b80630e365c75146100d4578063133f2513146101065780631c73d3b21461013657806321c7f28c1461016657806327f50a2d14610197578063412b294b146101c7575b600080fd5b6100ee60048036036100e991908101906122eb565b6102ff565b6040516100fd93929190612abd565b60405180910390f35b610120600480360361011b9190810190612149565b61048f565b60405161012d9190612a64565b60405180910390f35b610150600480360361014b91908101906120e4565b610729565b60405161015d9190612c2e565b60405180910390f35b610180600480360361017b91908101906120e4565b610775565b60405161018e929190612a86565b60405180910390f35b6101b160048036036101ac91908101906120e4565b6109cb565b6040516101be9190612a42565b60405180910390f35b6101e160048036036101dc91908101906122af565b610c64565b6040516101f093929190612b02565b60405180910390f35b610213600480360361020e919081019061219d565b610e70565b6040516102209190612c49565b60405180910390f35b610243600480360361023e919081019061210d565b6111e2565b005b61025f600480360361025a91908101906120e4565b611578565b60405161026e93929190612abd565b60405180910390f35b61027f6116f2565b60405161028c9190612892565b60405180910390f35b6102af60048036036102aa91908101906120e4565b611718565b6040516102be93929190612abd565b60405180910390f35b6102e160048036036102dc919081019061232c565b611892565b005b6102fd60048036036102f8919081019061221c565b611a5a565b005b600281805160208101820180518482526020830160208501208183528095505050505050600091509050806000018054600181600116156101000203166002900480601f0160208091040260200160405190810160405280929190818152602001828054600181600116156101000203166002900480156103c15780601f10610396576101008083540402835291602001916103c1565b820191906000526020600020905b8154815290600101906020018083116103a457829003601f168201915b505050505090806001018054600181600116156101000203166002900480601f01602080910402602001604051908101604052809291908181526020018280546001816001161561010002031660029004801561045f5780601f106104345761010080835404028352916020019161045f565b820191906000526020600020905b81548152906001019060200180831161044257829003601f168201915b5050505050908060020160009054906101000a900473ffffffffffffffffffffffffffffffffffffffff16905083565b60608273ffffffffffffffffffffffffffffffffffffffff163373ffffffffffffffffffffffffffffffffffffffff16146104ff576040517f08c379a00000000000000000000000000000000000000000000000000000000081526004016104f690612b8e565b60405180910390fd5b6000600360008573ffffffffffffffffffffffffffffffffffffffff1673ffffffffffffffffffffffffffffffffffffffff168152602001908152602001600020905060008090505b81805490508110156106e757836040516020016105659190612864565b6040516020818303038152906040528051906020012082828154811061058757fe5b90600052602060002090600302016000016040516020016105a8919061287b565b6040516020818303038152906040528051906020012014156106da577ffb1f071b15391d7494e8e9c016b967a2f2578b975882c3e73eeb85d9eb8b87c085858484815481106105f357fe5b9060005260206000209060030201600101604051610613939291906129fd565b60405180910390a181818154811061062757fe5b90600052602060002090600302016001018054600181600116156101000203166002900480601f0160208091040260200160405190810160405280929190818152602001828054600181600116156101000203166002900480156106cc5780601f106106a1576101008083540402835291602001916106cc565b820191906000526020600020905b8154815290600101906020018083116106af57829003601f168201915b505050505092505050610723565b8080600101915050610548565b506040517f08c379a000000000000000000000000000000000000000000000000000000000815260040161071a90612bce565b60405180910390fd5b92915050565b6000600360008373ffffffffffffffffffffffffffffffffffffffff1673ffffffffffffffffffffffffffffffffffffffff168152602001908152602001600020805490509050919050565b606080600460009054906101000a900473ffffffffffffffffffffffffffffffffffffffff1673ffffffffffffffffffffffffffffffffffffffff163373ffffffffffffffffffffffffffffffffffffffff1614610808576040517f08c379a00000000000000000000000000000000000000000000000000000000081526004016107ff90612b4e565b60405180910390fd5b6000808473ffffffffffffffffffffffffffffffffffffffff1673ffffffffffffffffffffffffffffffffffffffff1681526020019081526020016000206000016000808573ffffffffffffffffffffffffffffffffffffffff1673ffffffffffffffffffffffffffffffffffffffff168152602001908152602001600020600101818054600181600116156101000203166002900480601f01602080910402602001604051908101604052809291908181526020018280546001816001161561010002031660029004801561091f5780601f106108f45761010080835404028352916020019161091f565b820191906000526020600020905b81548152906001019060200180831161090257829003601f168201915b50505050509150808054600181600116156101000203166002900480601f0160208091040260200160405190810160405280929190818152602001828054600181600116156101000203166002900480156109bb5780601f10610990576101008083540402835291602001916109bb565b820191906000526020600020905b81548152906001019060200180831161099e57829003601f168201915b5050505050905091509150915091565b60608173ffffffffffffffffffffffffffffffffffffffff163373ffffffffffffffffffffffffffffffffffffffff1614610a74577fb9698efb07b9cc58cbbd5d8cd256f2cf3eeeba0f314c12fbc31928fab34dc9803383604051610a31929190612915565b60405180910390a16040517f08c379a0000000000000000000000000000000000000000000000000000000008152600401610a6b90612b8e565b60405180910390fd5b6000600360008473ffffffffffffffffffffffffffffffffffffffff1673ffffffffffffffffffffffffffffffffffffffff168152602001908152602001600020805490509050606081604051908082528060200260200182016040528015610af157816020015b6060815260200190600190039081610adc5790505b50905060008090505b82811015610c20576000600360008773ffffffffffffffffffffffffffffffffffffffff1673ffffffffffffffffffffffffffffffffffffffff1681526020019081526020016000208281548110610b4e57fe5b90600052602060002090600302019050806000018054600181600116156101000203166002900480601f016020809104026020016040519081016040528092919081815260200182805460018160011615610100020316600290048015610bf65780601f10610bcb57610100808354040283529160200191610bf6565b820191906000526020600020905b815481529060010190602001808311610bd957829003601f168201915b5050505050838381518110610c0757fe5b6020026020010181905250508080600101915050610afa565b507fce1e70ee2e917ed1134ca1510b3e71d2056186c5ae4b026a865e90b3812ce4d28482604051610c52929190612951565b60405180910390a18092505050919050565b60036020528160005260406000208181548110610c7d57fe5b906000526020600020906003020160009150915050806000018054600181600116156101000203166002900480601f016020809104026020016040519081016040528092919081815260200182805460018160011615610100020316600290048015610d2a5780601f10610cff57610100808354040283529160200191610d2a565b820191906000526020600020905b815481529060010190602001808311610d0d57829003601f168201915b505050505090806001018054600181600116156101000203166002900480601f016020809104026020016040519081016040528092919081815260200182805460018160011615610100020316600290048015610dc85780601f10610d9d57610100808354040283529160200191610dc8565b820191906000526020600020905b815481529060010190602001808311610dab57829003601f168201915b505050505090806002018054600181600116156101000203166002900480601f016020809104026020016040519081016040528092919081815260200182805460018160011615610100020316600290048015610e665780601f10610e3b57610100808354040283529160200191610e66565b820191906000526020600020905b815481529060010190602001808311610e4957829003601f168201915b5050505050905083565b6000806000808673ffffffffffffffffffffffffffffffffffffffff1673ffffffffffffffffffffffffffffffffffffffff168152602001908152602001600020600001805460018160011615610100020316600290049050141580610f2d57506000600160008673ffffffffffffffffffffffffffffffffffffffff1673ffffffffffffffffffffffffffffffffffffffff16815260200190815260200160002060000180546001816001161561010002031660029004905014155b610f6c576040517f08c379a0000000000000000000000000000000000000000000000000000000008152600401610f6390612bee565b60405180910390fd5b82604051602001610f7d9190612864565b604051602081830303815290604052805190602001206000808673ffffffffffffffffffffffffffffffffffffffff1673ffffffffffffffffffffffffffffffffffffffff168152602001908152602001600020600001604051602001610fe4919061287b565b604051602081830303815290604052805190602001201480156110925750816040516020016110139190612864565b604051602081830303815290604052805190602001206000808673ffffffffffffffffffffffffffffffffffffffff1673ffffffffffffffffffffffffffffffffffffffff16815260200190815260200160002060010160405160200161107a919061287b565b60405160208183030381529060405280519060200120145b156110a057600290506111db565b826040516020016110b19190612864565b60405160208183030381529060405280519060200120600160008673ffffffffffffffffffffffffffffffffffffffff1673ffffffffffffffffffffffffffffffffffffffff168152602001908152602001600020600001604051602001611119919061287b565b604051602081830303815290604052805190602001201480156111c85750816040516020016111489190612864565b60405160208183030381529060405280519060200120600160008673ffffffffffffffffffffffffffffffffffffffff1673ffffffffffffffffffffffffffffffffffffffff1681526020019081526020016000206001016040516020016111b0919061287b565b60405160208183030381529060405280519060200120145b156111d657600190506111db565b600090505b9392505050565b600460009054906101000a900473ffffffffffffffffffffffffffffffffffffffff1673ffffffffffffffffffffffffffffffffffffffff163373ffffffffffffffffffffffffffffffffffffffff1614611272576040517f08c379a000000000000000000000000000000000000000000000000000000000815260040161126990612b4e565b60405180910390fd5b8080156112d657506000600160008473ffffffffffffffffffffffffffffffffffffffff1673ffffffffffffffffffffffffffffffffffffffff16815260200190815260200160002060000180546001816001161561010002031660029004905014155b80611337575060008060008473ffffffffffffffffffffffffffffffffffffffff1673ffffffffffffffffffffffffffffffffffffffff16815260200190815260200160002060000180546001816001161561010002031660029004905014155b611376576040517f08c379a000000000000000000000000000000000000000000000000000000000815260040161136d90612b6e565b60405180910390fd5b801561140a57600160008373ffffffffffffffffffffffffffffffffffffffff1673ffffffffffffffffffffffffffffffffffffffff168152602001908152602001600020600080820160006113cc9190611eb8565b6001820160006113dc9190611eb8565b6002820160006101000a81549073ffffffffffffffffffffffffffffffffffffffff0219169055505061153b565b60026000808473ffffffffffffffffffffffffffffffffffffffff1673ffffffffffffffffffffffffffffffffffffffff16815260200190815260200160002060000160405161145a919061287b565b9081526020016040518091039020600080820160006114799190611eb8565b6001820160006114899190611eb8565b6002820160006101000a81549073ffffffffffffffffffffffffffffffffffffffff021916905550506000808373ffffffffffffffffffffffffffffffffffffffff1673ffffffffffffffffffffffffffffffffffffffff168152602001908152602001600020600080820160006115019190611eb8565b6001820160006115119190611eb8565b6002820160006101000a81549073ffffffffffffffffffffffffffffffffffffffff021916905550505b7f84575b21619a9ae6ef391477f1017be60323335aabaf95dc8daaca2b97ff6f29828260405161156c929190612981565b60405180910390a15050565b6001602052806000526040600020600091509050806000018054600181600116156101000203166002900480601f0160208091040260200160405190810160405280929190818152602001828054600181600116156101000203166002900480156116245780601f106115f957610100808354040283529160200191611624565b820191906000526020600020905b81548152906001019060200180831161160757829003601f168201915b505050505090806001018054600181600116156101000203166002900480601f0160208091040260200160405190810160405280929190818152602001828054600181600116156101000203166002900480156116c25780601f10611697576101008083540402835291602001916116c2565b820191906000526020600020905b8154815290600101906020018083116116a557829003601f168201915b5050505050908060020160009054906101000a900473ffffffffffffffffffffffffffffffffffffffff16905083565b600460009054906101000a900473ffffffffffffffffffffffffffffffffffffffff1681565b6000602052806000526040600020600091509050806000018054600181600116156101000203166002900480601f0160208091040260200160405190810160405280929190818152602001828054600181600116156101000203166002900480156117c45780601f10611799576101008083540402835291602001916117c4565b820191906000526020600020905b8154815290600101906020018083116117a757829003601f168201915b505050505090806001018054600181600116156101000203166002900480601f0160208091040260200160405190810160405280929190818152602001828054600181600116156101000203166002900480156118625780601f1061183757610100808354040283529160200191611862565b820191906000526020600020905b81548152906001019060200180831161184557829003601f168201915b5050505050908060020160009054906101000a900473ffffffffffffffffffffffffffffffffffffffff16905083565b6000600160003373ffffffffffffffffffffffffffffffffffffffff1673ffffffffffffffffffffffffffffffffffffffff168152602001908152602001600020600001805460018160011615610100020316600290049050141561192c576040517f08c379a000000000000000000000000000000000000000000000000000000000815260040161192390612c0e565b60405180910390fd5b611934611f00565b848160000181905250838160200181905250828160400181905250600360008373ffffffffffffffffffffffffffffffffffffffff1673ffffffffffffffffffffffffffffffffffffffff168152602001908152602001600020819080600181540180825580915050906001820390600052602060002090600302016000909192909190915060008201518160000190805190602001906119d6929190611f21565b5060208201518160010190805190602001906119f3929190611f21565b506040820151816002019080519060200190611a10929190611f21565b505050507f15318dcc2c09f5f472e35eea1902d60d65b9fd2852ec52e1e7719e18677466f93383878787604051611a4b9594939291906128ad565b60405180910390a15050505050565b600460009054906101000a900473ffffffffffffffffffffffffffffffffffffffff1673ffffffffffffffffffffffffffffffffffffffff163373ffffffffffffffffffffffffffffffffffffffff1614611aea576040517f08c379a0000000000000000000000000000000000000000000000000000000008152600401611ae190612b4e565b60405180910390fd5b808015611b4d57506000600160008673ffffffffffffffffffffffffffffffffffffffff1673ffffffffffffffffffffffffffffffffffffffff168152602001908152602001600020600001805460018160011615610100020316600290049050145b80611bad575060008060008673ffffffffffffffffffffffffffffffffffffffff1673ffffffffffffffffffffffffffffffffffffffff168152602001908152602001600020600001805460018160011615610100020316600290049050145b611bec576040517f08c379a0000000000000000000000000000000000000000000000000000000008152600401611be390612bae565b60405180910390fd5b611bf4611fa1565b83816000018190525082816020018190525084816040019073ffffffffffffffffffffffffffffffffffffffff16908173ffffffffffffffffffffffffffffffffffffffff16815250508115611d0d5780600160008773ffffffffffffffffffffffffffffffffffffffff1673ffffffffffffffffffffffffffffffffffffffff1681526020019081526020016000206000820151816000019080519060200190611ca0929190611f21565b506020820151816001019080519060200190611cbd929190611f21565b5060408201518160020160006101000a81548173ffffffffffffffffffffffffffffffffffffffff021916908373ffffffffffffffffffffffffffffffffffffffff160217905550905050611e74565b80600285604051611d1e9190612864565b90815260200160405180910390206000820151816000019080519060200190611d48929190611f21565b506020820151816001019080519060200190611d65929190611f21565b5060408201518160020160006101000a81548173ffffffffffffffffffffffffffffffffffffffff021916908373ffffffffffffffffffffffffffffffffffffffff160217905550905050806000808773ffffffffffffffffffffffffffffffffffffffff1673ffffffffffffffffffffffffffffffffffffffff1681526020019081526020016000206000820151816000019080519060200190611e0b929190611f21565b506020820151816001019080519060200190611e28929190611f21565b5060408201518160020160006101000a81548173ffffffffffffffffffffffffffffffffffffffff021916908373ffffffffffffffffffffffffffffffffffffffff1602179055509050505b7f99ea35f66439010500c59c9714f04ed5ce6e9dcc9e07bc1d3a3b779c1d73dfe685858585604051611ea994939291906129aa565b60405180910390a15050505050565b50805460018160011615610100020316600290046000825580601f10611ede5750611efd565b601f016020900490600052602060002090810190611efc9190611fd8565b5b50565b60405180606001604052806060815260200160608152602001606081525090565b828054600181600116156101000203166002900490600052602060002090601f016020900481019282601f10611f6257805160ff1916838001178555611f90565b82800160010185558215611f90579182015b82811115611f8f578251825591602001919060010190611f74565b5b509050611f9d9190611fd8565b5090565b60405180606001604052806060815260200160608152602001600073ffffffffffffffffffffffffffffffffffffffff1681525090565b611ffa91905b80821115611ff6576000816000905550600101611fde565b5090565b90565b60008135905061200c81612e58565b92915050565b60008135905061202181612e6f565b92915050565b600082601f83011261203857600080fd5b813561204b61204682612c91565b612c64565b9150808252602083016020830185838301111561206757600080fd5b612072838284612e05565b50505092915050565b600082601f83011261208c57600080fd5b813561209f61209a82612cbd565b612c64565b915080825260208301602083018583830111156120bb57600080fd5b6120c6838284612e05565b50505092915050565b6000813590506120de81612e86565b92915050565b6000602082840312156120f657600080fd5b600061210484828501611ffd565b91505092915050565b6000806040838503121561212057600080fd5b600061212e85828601611ffd565b925050602061213f85828601612012565b9150509250929050565b6000806040838503121561215c57600080fd5b600061216a85828601611ffd565b925050602083013567ffffffffffffffff81111561218757600080fd5b6121938582860161207b565b9150509250929050565b6000806000606084860312156121b257600080fd5b60006121c086828701611ffd565b935050602084013567ffffffffffffffff8111156121dd57600080fd5b6121e98682870161207b565b925050604084013567ffffffffffffffff81111561220657600080fd5b6122128682870161207b565b9150509250925092565b6000806000806080858703121561223257600080fd5b600061224087828801611ffd565b945050602085013567ffffffffffffffff81111561225d57600080fd5b6122698782880161207b565b935050604085013567ffffffffffffffff81111561228657600080fd5b6122928782880161207b565b92505060606122a387828801612012565b91505092959194509250565b600080604083850312156122c257600080fd5b60006122d085828601611ffd565b92505060206122e1858286016120cf565b9150509250929050565b6000602082840312156122fd57600080fd5b600082013567ffffffffffffffff81111561231757600080fd5b61232384828501612027565b91505092915050565b6000806000806080858703121561234257600080fd5b600085013567ffffffffffffffff81111561235c57600080fd5b6123688782880161207b565b945050602085013567ffffffffffffffff81111561238557600080fd5b6123918782880161207b565b935050604085013567ffffffffffffffff8111156123ae57600080fd5b6123ba8782880161207b565b92505060606123cb87828801611ffd565b91505092959194509250565b60006123e383836124f7565b905092915050565b6123f481612dcf565b82525050565b61240381612d7a565b82525050565b600061241482612d0e565b61241e8185612d3c565b93508360208202850161243085612ce9565b8060005b8581101561246c578484038952815161244d85826123d7565b945061245883612d2f565b925060208a01995050600181019050612434565b50829750879550505050505092915050565b61248781612d8c565b82525050565b600061249882612d24565b6124a28185612d5e565b93506124b2818560208601612e14565b6124bb81612e47565b840191505092915050565b60006124d182612d24565b6124db8185612d6f565b93506124eb818560208601612e14565b80840191505092915050565b600061250282612d19565b61250c8185612d4d565b935061251c818560208601612e14565b61252581612e47565b840191505092915050565b600061253b82612d19565b6125458185612d5e565b9350612555818560208601612e14565b61255e81612e47565b840191505092915050565b60008154600181166000811461258657600181146125ac576125f0565b607f60028304166125978187612d5e565b955060ff1983168652602086019350506125f0565b600282046125ba8187612d5e565b95506125c585612cf9565b60005b828110156125e7578154818901526001820191506020810190506125c8565b80880195505050505b505092915050565b600081546001811660008114612615576001811461263a5761267e565b607f60028304166126268187612d6f565b955060ff198316865280860193505061267e565b600282046126488187612d6f565b955061265385612cf9565b60005b8281101561267557815481890152600182019150602081019050612656565b82880195505050505b505092915050565b6000612693601783612d5e565b91507f43616c6c6572206973206e6f7420746865206f776e65720000000000000000006000830152602082019050919050565b60006126d3601a83612d5e565b91507f757365722f73656e64657220646f6573206e6f742065786973740000000000006000830152602082019050919050565b6000612713601883612d5e565b91507f617474656d707420746f206163636573732064656e69656400000000000000006000830152602082019050919050565b6000612753601a83612d5e565b91507f73656e6465722f7573657220616c7265616479206578697374730000000000006000830152602082019050919050565b6000612793601583612d5e565b91507f446f63756d656e74204944206e6f7420666f756e6400000000000000000000006000830152602082019050919050565b60006127d3601383612d5e565b91507f5573657220646f6573206e6f74206578697374000000000000000000000000006000830152602082019050919050565b6000612813601a83612d5e565b91507f6163636f756e742075736564206973206e6f742073656e6465720000000000006000830152602082019050919050565b61284f81612db8565b82525050565b61285e81612dc2565b82525050565b600061287082846124c6565b915081905092915050565b600061288782846125f8565b915081905092915050565b60006020820190506128a760008301846123fa565b92915050565b600060a0820190506128c260008301886123eb565b6128cf60208301876123fa565b81810360408301526128e1818661248d565b905081810360608301526128f5818561248d565b90508181036080830152612909818461248d565b90509695505050505050565b600060608201905061292a60008301856123eb565b61293760208301846123fa565b818103604083015261294881612706565b90509392505050565b600060408201905061296660008301856123fa565b81810360208301526129788184612409565b90509392505050565b600060408201905061299660008301856123fa565b6129a3602083018461247e565b9392505050565b60006080820190506129bf60008301876123fa565b81810360208301526129d1818661248d565b905081810360408301526129e5818561248d565b90506129f4606083018461247e565b95945050505050565b6000606082019050612a1260008301866123fa565b8181036020830152612a24818561248d565b90508181036040830152612a388184612569565b9050949350505050565b60006020820190508181036000830152612a5c8184612409565b905092915050565b60006020820190508181036000830152612a7e818461248d565b905092915050565b60006040820190508181036000830152612aa0818561248d565b90508181036020830152612ab4818461248d565b90509392505050565b60006060820190508181036000830152612ad78186612530565b90508181036020830152612aeb8185612530565b9050612afa60408301846123fa565b949350505050565b60006060820190508181036000830152612b1c8186612530565b90508181036020830152612b308185612530565b90508181036040830152612b448184612530565b9050949350505050565b60006020820190508181036000830152612b6781612686565b9050919050565b60006020820190508181036000830152612b87816126c6565b9050919050565b60006020820190508181036000830152612ba781612706565b9050919050565b60006020820190508181036000830152612bc781612746565b9050919050565b60006020820190508181036000830152612be781612786565b9050919050565b60006020820190508181036000830152612c07816127c6565b9050919050565b60006020820190508181036000830152612c2781612806565b9050919050565b6000602082019050612c436000830184612846565b92915050565b6000602082019050612c5e6000830184612855565b92915050565b6000604051905081810181811067ffffffffffffffff82111715612c8757600080fd5b8060405250919050565b600067ffffffffffffffff821115612ca857600080fd5b601f19601f8301169050602081019050919050565b600067ffffffffffffffff821115612cd457600080fd5b601f19601f8301169050602081019050919050565b6000819050602082019050919050565b60008190508160005260206000209050919050565b600081519050919050565b600081519050919050565b600081519050919050565b6000602082019050919050565b600082825260208201905092915050565b600082825260208201905092915050565b600082825260208201905092915050565b600081905092915050565b6000612d8582612d98565b9050919050565b60008115159050919050565b600073ffffffffffffffffffffffffffffffffffffffff82169050919050565b6000819050919050565b600060ff82169050919050565b6000612dda82612de1565b9050919050565b6000612dec82612df3565b9050919050565b6000612dfe82612d98565b9050919050565b82818337600083830152505050565b60005b83811015612e32578082015181840152602081019050612e17565b83811115612e41576000848401525b50505050565b6000601f19601f8301169050919050565b612e6181612d7a565b8114612e6c57600080fd5b50565b612e7881612d8c565b8114612e8357600080fd5b50565b612e8f81612db8565b8114612e9a57600080fd5b5056fea365627a7a72315820281a974e06598c024b54aa826f5c6ac4da6c88eaaa0b3f3ab2dc654599f5bbe96c6578706572696d656e74616cf564736f6c63430005100040",
  "source": "pragma solidity ^0.5.16;\r\npragma experimental ABIEncoderV2;\r\n\r\ncontract Access_Control {\r\n    struct User {\r\n        string username;\r\n        string userID;\r\n        address useraddress;\r\n    }\r\n\r\n    struct Document {\r\n        string docname;\r\n        string ipfshash;\r\n        string docID;\r\n    }\r\n\r\n    mapping(address => User) public receiverList;\r\n    mapping(address => User) public senderList;\r\n    mapping(string => User) public userFromName;\r\n    mapping(address => Document[]) public docAccessList;\r\n    address public owner;\r\n\r\n    constructor() public {\r\n        owner = msg.sender;\r\n    }\r\n\r\n    modifier onlyOwner() {\r\n        require(msg.sender == owner, \"Caller is not the owner\");\r\n        _;\r\n    }\r\n\r\n    event UserAdded(address userAddress, string username, string userID, bool sender);\r\n    event UserDeleted(address userAddress, bool sender);\r\n    event DocumentAdded(address sender, address userAddress, string docname, string ipfshash, string docID);\r\n    event DocumentAccessed(address userAddress, string docname, string dochash);\r\n    //event DocumentAccessedHash(address userAddress, string dochash);\r\n    event DocumentsListed(address userAdress, string[] docnames);\r\n    event AccessDenied(address sender, address userAddress, string message);\r\n\r\n    function getuserList(address _add) public view onlyOwner returns (string memory, string memory) {\r\n        return (receiverList[_add].username, receiverList[_add].userID);\r\n    }\r\n\r\n    function addUser(address _userAddress, string memory _username, string memory _userID, bool sender) public onlyOwner {\r\n        require((sender && bytes(senderList[_userAddress].username).length == 0) ||\r\n            (bytes(receiverList[_userAddress].username).length == 0),\r\n            \"sender/user already exists\");\r\n\r\n        User memory new_user;\r\n        new_user.username = _username;\r\n        new_user.userID = _userID;\r\n        new_user.useraddress = _userAddress;\r\n\r\n        if (sender) {\r\n            senderList[_userAddress] = new_user;\r\n        } else {\r\n            userFromName[_username] = new_user;\r\n            receiverList[_userAddress] = new_user;\r\n        }\r\n        \r\n        emit UserAdded(_userAddress, _username, _userID, sender);\r\n    }\r\n\r\n    function deleteUser(address _userAddress, bool sender) public onlyOwner {\r\n        require((sender && bytes(senderList[_userAddress].username).length != 0) ||\r\n            (bytes(receiverList[_userAddress].username).length != 0), \"user/sender does not exist\");\r\n\r\n        if (sender) {\r\n            delete senderList[_userAddress];\r\n        } else {\r\n            delete userFromName[receiverList[_userAddress].username];\r\n            delete receiverList[_userAddress];\r\n        }\r\n        \r\n        emit UserDeleted(_userAddress, sender);\r\n    }\r\n\r\n    function verifyUser(address _userAddress, string memory _username, string memory _userID) public view returns (uint8) {\r\n        require((bytes(receiverList[_userAddress].username).length != 0) || (bytes(senderList[_userAddress].username).length != 0), \"User does not exist\");\r\n\r\n        if (keccak256(abi.encodePacked(receiverList[_userAddress].username)) == keccak256(abi.encodePacked(_username)) &&\r\n            keccak256(abi.encodePacked(receiverList[_userAddress].userID)) == keccak256(abi.encodePacked(_userID))) {\r\n            return 2;\r\n        } \r\n        if (keccak256(abi.encodePacked(senderList[_userAddress].username)) == keccak256(abi.encodePacked(_username)) &&\r\n            keccak256(abi.encodePacked(senderList[_userAddress].userID)) == keccak256(abi.encodePacked(_userID))) {\r\n            return 1;\r\n        }\r\n\r\n        return 0;\r\n    }\r\n\r\n    function addDocument(string memory _docname, string memory _ipfshash, string memory _docID, address _userAddress) public {\r\n        require(bytes(senderList[msg.sender].username).length != 0, \"account used is not sender\");\r\n\r\n        Document memory new_doc;\r\n        new_doc.docname = _docname;\r\n        new_doc.ipfshash = _ipfshash;\r\n        new_doc.docID = _docID;\r\n\r\n        docAccessList[_userAddress].push(new_doc);\r\n\r\n        emit DocumentAdded(msg.sender, _userAddress, _docname, _ipfshash, _docID);\r\n    }\r\n\r\n    function getDocCount(address _userAddress) public view returns (uint) {\r\n        return docAccessList[_userAddress].length;\r\n    }\r\n\r\n    function getDocuments(address _userAddress) public returns (string[] memory) {\r\n        if (msg.sender != _userAddress) {\r\n            emit AccessDenied(msg.sender, _userAddress, \"attempt to access denied\");\r\n            revert(\"attempt to access denied\");\r\n        }\r\n\r\n        uint docCount = docAccessList[_userAddress].length;\r\n        string[] memory docnames = new string[](docCount);\r\n\r\n        for (uint i = 0; i < docCount; i++) {\r\n            Document storage doc = docAccessList[_userAddress][i];\r\n            docnames[i] = doc.docname;\r\n        }\r\n\r\n        //emit DocumentAccessed(_userAddress, \"all documents\");\r\n        emit DocumentsListed(_userAddress, docnames);\r\n\r\n        return docnames;\r\n    }\r\n\r\n    function getIPFSHashFromDocname(address _userAddress, string memory _docname) public returns (string memory) {\r\n        require(msg.sender == _userAddress, \"attempt to access denied\");\r\n        \r\n\r\n        Document[] storage documents = docAccessList[_userAddress];\r\n\r\n        for (uint i = 0; i < documents.length; i++) {\r\n            if (keccak256(abi.encodePacked(documents[i].docname)) == keccak256(abi.encodePacked(_docname))) {\r\n                emit DocumentAccessed(_userAddress, _docname, documents[i].ipfshash);\r\n                //emit DocumentAccessedHash(_userAddress, documents[i].ipfshash);\r\n                return documents[i].ipfshash;\r\n            }\r\n        }\r\n\r\n        revert(\"Document ID not found\");\r\n    }\r\n}\r\n",
  "sourcePath": "C:\\Users\\alex_\\lawfer_root\\contracts\\Access_Control.sol",
  "compiler": {
    "name": "solc",
    "version": "0.5.16+commit.9c3226ce.Emscripten.clang"
  },
  "schemaVersion": "3.4.16",
  "updatedAt": "2024-07-19T02:42:59.433Z",
  "networkType": "ethereum",
  "devdoc": {
    "methods": {}
  },
  "userdoc": {
    "methods": {}
  }
}