{
  "contractName": "Access_Control",
  "abi": [
    {
      "inputs": [],
      "payable": false,
      "stateMutability": "nonpayable",
      "type": "constructor"
    },
    {
      "anonymous": false,
      "inputs": [
        {
          "indexed": false,
          "internalType": "address",
          "name": "sender",
          "type": "address"
        },
        {
          "indexed": false,
          "internalType": "address",
          "name": "userAddress",
          "type": "address"
        },
        {
          "indexed": false,
          "internalType": "string",
          "name": "message",
          "type": "string"
        }
      ],
      "name": "AccessDenied",
      "type": "event"
    },
    {
      "anonymous": false,
      "inputs": [
        {
          "indexed": false,
          "internalType": "address",
          "name": "userAddress",
          "type": "address"
        },
        {
          "indexed": false,
          "internalType": "string",
          "name": "docname",
          "type": "string"
        }
      ],
      "name": "DocumentAccessed",
      "type": "event"
    },
    {
      "anonymous": false,
      "inputs": [
        {
          "indexed": false,
          "internalType": "address",
          "name": "sender",
          "type": "address"
        },
        {
          "indexed": false,
          "internalType": "address",
          "name": "userAddress",
          "type": "address"
        },
        {
          "indexed": false,
          "internalType": "string",
          "name": "docname",
          "type": "string"
        },
        {
          "indexed": false,
          "internalType": "string",
          "name": "ipfshash",
          "type": "string"
        },
        {
          "indexed": false,
          "internalType": "string",
          "name": "docID",
          "type": "string"
        }
      ],
      "name": "DocumentAdded",
      "type": "event"
    },
    {
      "anonymous": false,
      "inputs": [
        {
          "indexed": false,
          "internalType": "address",
          "name": "userAddress",
          "type": "address"
        },
        {
          "indexed": false,
          "internalType": "string",
          "name": "username",
          "type": "string"
        },
        {
          "indexed": false,
          "internalType": "string",
          "name": "userID",
          "type": "string"
        },
        {
          "indexed": false,
          "internalType": "bool",
          "name": "sender",
          "type": "bool"
        }
      ],
      "name": "UserAdded",
      "type": "event"
    },
    {
      "anonymous": false,
      "inputs": [
        {
          "indexed": false,
          "internalType": "address",
          "name": "userAddress",
          "type": "address"
        },
        {
          "indexed": false,
          "internalType": "bool",
          "name": "sender",
          "type": "bool"
        }
      ],
      "name": "UserDeleted",
      "type": "event"
    },
    {
      "constant": true,
      "inputs": [
        {
          "internalType": "address",
          "name": "",
          "type": "address"
        },
        {
          "internalType": "uint256",
          "name": "",
          "type": "uint256"
        }
      ],
      "name": "docAccessList",
      "outputs": [
        {
          "internalType": "string",
          "name": "docname",
          "type": "string"
        },
        {
          "internalType": "string",
          "name": "ipfshash",
          "type": "string"
        },
        {
          "internalType": "string",
          "name": "docID",
          "type": "string"
        }
      ],
      "payable": false,
      "stateMutability": "view",
      "type": "function"
    },
    {
      "constant": true,
      "inputs": [],
      "name": "owner",
      "outputs": [
        {
          "internalType": "address",
          "name": "",
          "type": "address"
        }
      ],
      "payable": false,
      "stateMutability": "view",
      "type": "function"
    },
    {
      "constant": true,
      "inputs": [
        {
          "internalType": "address",
          "name": "",
          "type": "address"
        }
      ],
      "name": "receiverList",
      "outputs": [
        {
          "internalType": "string",
          "name": "username",
          "type": "string"
        },
        {
          "internalType": "string",
          "name": "userID",
          "type": "string"
        },
        {
          "internalType": "address",
          "name": "useraddress",
          "type": "address"
        }
      ],
      "payable": false,
      "stateMutability": "view",
      "type": "function"
    },
    {
      "constant": true,
      "inputs": [
        {
          "internalType": "address",
          "name": "",
          "type": "address"
        }
      ],
      "name": "senderList",
      "outputs": [
        {
          "internalType": "string",
          "name": "username",
          "type": "string"
        },
        {
          "internalType": "string",
          "name": "userID",
          "type": "string"
        },
        {
          "internalType": "address",
          "name": "useraddress",
          "type": "address"
        }
      ],
      "payable": false,
      "stateMutability": "view",
      "type": "function"
    },
    {
      "constant": true,
      "inputs": [
        {
          "internalType": "string",
          "name": "",
          "type": "string"
        }
      ],
      "name": "userFromName",
      "outputs": [
        {
          "internalType": "string",
          "name": "username",
          "type": "string"
        },
        {
          "internalType": "string",
          "name": "userID",
          "type": "string"
        },
        {
          "internalType": "address",
          "name": "useraddress",
          "type": "address"
        }
      ],
      "payable": false,
      "stateMutability": "view",
      "type": "function"
    },
    {
      "constant": true,
      "inputs": [
        {
          "internalType": "address",
          "name": "_add",
          "type": "address"
        }
      ],
      "name": "getuserList",
      "outputs": [
        {
          "internalType": "string",
          "name": "",
          "type": "string"
        },
        {
          "internalType": "string",
          "name": "",
          "type": "string"
        }
      ],
      "payable": false,
      "stateMutability": "view",
      "type": "function"
    },
    {
      "constant": false,
      "inputs": [
        {
          "internalType": "address",
          "name": "_userAddress",
          "type": "address"
        },
        {
          "internalType": "string",
          "name": "_username",
          "type": "string"
        },
        {
          "internalType": "string",
          "name": "_userID",
          "type": "string"
        },
        {
          "internalType": "bool",
          "name": "sender",
          "type": "bool"
        }
      ],
      "name": "addUser",
      "outputs": [],
      "payable": false,
      "stateMutability": "nonpayable",
      "type": "function"
    },
    {
      "constant": false,
      "inputs": [
        {
          "internalType": "address",
          "name": "_userAddress",
          "type": "address"
        },
        {
          "internalType": "bool",
          "name": "sender",
          "type": "bool"
        }
      ],
      "name": "deleteUser",
      "outputs": [],
      "payable": false,
      "stateMutability": "nonpayable",
      "type": "function"
    },
    {
      "constant": true,
      "inputs": [
        {
          "internalType": "address",
          "name": "_userAddress",
          "type": "address"
        },
        {
          "internalType": "string",
          "name": "_username",
          "type": "string"
        },
        {
          "internalType": "string",
          "name": "_userID",
          "type": "string"
        }
      ],
      "name": "verifyUser",
      "outputs": [
        {
          "internalType": "uint8",
          "name": "",
          "type": "uint8"
        }
      ],
      "payable": false,
      "stateMutability": "view",
      "type": "function"
    },
    {
      "constant": false,
      "inputs": [
        {
          "internalType": "string",
          "name": "_docname",
          "type": "string"
        },
        {
          "internalType": "string",
          "name": "_ipfshash",
          "type": "string"
        },
        {
          "internalType": "string",
          "name": "_docID",
          "type": "string"
        },
        {
          "internalType": "address",
          "name": "_userAddress",
          "type": "address"
        }
      ],
      "name": "addDocument",
      "outputs": [],
      "payable": false,
      "stateMutability": "nonpayable",
      "type": "function"
    },
    {
      "constant": true,
      "inputs": [
        {
          "internalType": "address",
          "name": "_userAddress",
          "type": "address"
        }
      ],
      "name": "getDocCount",
      "outputs": [
        {
          "internalType": "uint256",
          "name": "",
          "type": "uint256"
        }
      ],
      "payable": false,
      "stateMutability": "view",
      "type": "function"
    },
    {
      "constant": false,
      "inputs": [
        {
          "internalType": "address",
          "name": "_userAddress",
          "type": "address"
        }
      ],
      "name": "getDocuments",
      "outputs": [
        {
          "internalType": "string[]",
          "name": "",
          "type": "string[]"
        }
      ],
      "payable": false,
      "stateMutability": "nonpayable",
      "type": "function"
    },
    {
      "constant": false,
      "inputs": [
        {
          "internalType": "address",
          "name": "_userAddress",
          "type": "address"
        },
        {
          "internalType": "string",
          "name": "_docname",
          "type": "string"
        }
      ],
      "name": "getIPFSHashFromDocname",
      "outputs": [
        {
          "internalType": "string",
          "name": "",
          "type": "string"
        }
      ],
      "payable": false,
      "stateMutability": "nonpayable",
      "type": "function"
    }
  ],
  "bytecode": "0x608060405234801561001057600080fd5b5033600460006101000a81548173ffffffffffffffffffffffffffffffffffffffff021916908373ffffffffffffffffffffffffffffffffffffffff160217905550612e5a806100616000396000f3fe608060405234801561001057600080fd5b50600436106100cf5760003560e01c806378c188c51161008c5780638da5cb5b116100665780638da5cb5b146102775780639cd4cf0214610295578063a6f59da1146102c7578063f1de7ec8146102e3576100cf565b806378c188c5146101f957806387bc9fad146102295780638d3e5f2d14610245576100cf565b80630e365c75146100d4578063133f2513146101065780631c73d3b21461013657806321c7f28c1461016657806327f50a2d14610197578063412b294b146101c7575b600080fd5b6100ee60048036036100e991908101906122cb565b6102ff565b6040516100fd93929190612a37565b60405180910390f35b610120600480360361011b9190810190612129565b61048f565b60405161012d91906129de565b60405180910390f35b610150600480360361014b91908101906120c4565b61070b565b60405161015d9190612ba8565b60405180910390f35b610180600480360361017b91908101906120c4565b610757565b60405161018e929190612a00565b60405180910390f35b6101b160048036036101ac91908101906120c4565b6109ad565b6040516101be91906129bc565b60405180910390f35b6101e160048036036101dc919081019061228f565b610c44565b6040516101f093929190612a7c565b60405180910390f35b610213600480360361020e919081019061217d565b610e50565b6040516102209190612bc3565b60405180910390f35b610243600480360361023e91908101906120ed565b6111c2565b005b61025f600480360361025a91908101906120c4565b611558565b60405161026e93929190612a37565b60405180910390f35b61027f6116d2565b60405161028c9190612823565b60405180910390f35b6102af60048036036102aa91908101906120c4565b6116f8565b6040516102be93929190612a37565b60405180910390f35b6102e160048036036102dc919081019061230c565b611872565b005b6102fd60048036036102f891908101906121fc565b611a3a565b005b600281805160208101820180518482526020830160208501208183528095505050505050600091509050806000018054600181600116156101000203166002900480601f0160208091040260200160405190810160405280929190818152602001828054600181600116156101000203166002900480156103c15780601f10610396576101008083540402835291602001916103c1565b820191906000526020600020905b8154815290600101906020018083116103a457829003601f168201915b505050505090806001018054600181600116156101000203166002900480601f01602080910402602001604051908101604052809291908181526020018280546001816001161561010002031660029004801561045f5780601f106104345761010080835404028352916020019161045f565b820191906000526020600020905b81548152906001019060200180831161044257829003601f168201915b5050505050908060020160009054906101000a900473ffffffffffffffffffffffffffffffffffffffff16905083565b60608273ffffffffffffffffffffffffffffffffffffffff163373ffffffffffffffffffffffffffffffffffffffff16146104ff576040517f08c379a00000000000000000000000000000000000000000000000000000000081526004016104f690612b08565b60405180910390fd5b6000600360008573ffffffffffffffffffffffffffffffffffffffff1673ffffffffffffffffffffffffffffffffffffffff168152602001908152602001600020905060008090505b81805490508110156106c9578360405160200161056591906127f5565b6040516020818303038152906040528051906020012082828154811061058757fe5b90600052602060002090600302016000016040516020016105a8919061280c565b6040516020818303038152906040528051906020012014156106bc577f73e32c259a8c8753df41fe1eaf5069dfbe58a56db8ca7396258bd702fec1a73585856040516105f592919061290b565b60405180910390a181818154811061060957fe5b90600052602060002090600302016001018054600181600116156101000203166002900480601f0160208091040260200160405190810160405280929190818152602001828054600181600116156101000203166002900480156106ae5780601f10610683576101008083540402835291602001916106ae565b820191906000526020600020905b81548152906001019060200180831161069157829003601f168201915b505050505092505050610705565b8080600101915050610548565b506040517f08c379a00000000000000000000000000000000000000000000000000000000081526004016106fc90612b48565b60405180910390fd5b92915050565b6000600360008373ffffffffffffffffffffffffffffffffffffffff1673ffffffffffffffffffffffffffffffffffffffff168152602001908152602001600020805490509050919050565b606080600460009054906101000a900473ffffffffffffffffffffffffffffffffffffffff1673ffffffffffffffffffffffffffffffffffffffff163373ffffffffffffffffffffffffffffffffffffffff16146107ea576040517f08c379a00000000000000000000000000000000000000000000000000000000081526004016107e190612ac8565b60405180910390fd5b6000808473ffffffffffffffffffffffffffffffffffffffff1673ffffffffffffffffffffffffffffffffffffffff1681526020019081526020016000206000016000808573ffffffffffffffffffffffffffffffffffffffff1673ffffffffffffffffffffffffffffffffffffffff168152602001908152602001600020600101818054600181600116156101000203166002900480601f0160208091040260200160405190810160405280929190818152602001828054600181600116156101000203166002900480156109015780601f106108d657610100808354040283529160200191610901565b820191906000526020600020905b8154815290600101906020018083116108e457829003601f168201915b50505050509150808054600181600116156101000203166002900480601f01602080910402602001604051908101604052809291908181526020018280546001816001161561010002031660029004801561099d5780601f106109725761010080835404028352916020019161099d565b820191906000526020600020905b81548152906001019060200180831161098057829003601f168201915b5050505050905091509150915091565b60608173ffffffffffffffffffffffffffffffffffffffff163373ffffffffffffffffffffffffffffffffffffffff1614610a56577fb9698efb07b9cc58cbbd5d8cd256f2cf3eeeba0f314c12fbc31928fab34dc9803383604051610a139291906128a6565b60405180910390a16040517f08c379a0000000000000000000000000000000000000000000000000000000008152600401610a4d90612b08565b60405180910390fd5b6000600360008473ffffffffffffffffffffffffffffffffffffffff1673ffffffffffffffffffffffffffffffffffffffff168152602001908152602001600020805490509050606081604051908082528060200260200182016040528015610ad357816020015b6060815260200190600190039081610abe5790505b50905060008090505b82811015610c02576000600360008773ffffffffffffffffffffffffffffffffffffffff1673ffffffffffffffffffffffffffffffffffffffff1681526020019081526020016000208281548110610b3057fe5b90600052602060002090600302019050806000018054600181600116156101000203166002900480601f016020809104026020016040519081016040528092919081815260200182805460018160011615610100020316600290048015610bd85780601f10610bad57610100808354040283529160200191610bd8565b820191906000526020600020905b815481529060010190602001808311610bbb57829003601f168201915b5050505050838381518110610be957fe5b6020026020010181905250508080600101915050610adc565b507f73e32c259a8c8753df41fe1eaf5069dfbe58a56db8ca7396258bd702fec1a73584604051610c32919061298e565b60405180910390a18092505050919050565b60036020528160005260406000208181548110610c5d57fe5b906000526020600020906003020160009150915050806000018054600181600116156101000203166002900480601f016020809104026020016040519081016040528092919081815260200182805460018160011615610100020316600290048015610d0a5780601f10610cdf57610100808354040283529160200191610d0a565b820191906000526020600020905b815481529060010190602001808311610ced57829003601f168201915b505050505090806001018054600181600116156101000203166002900480601f016020809104026020016040519081016040528092919081815260200182805460018160011615610100020316600290048015610da85780601f10610d7d57610100808354040283529160200191610da8565b820191906000526020600020905b815481529060010190602001808311610d8b57829003601f168201915b505050505090806002018054600181600116156101000203166002900480601f016020809104026020016040519081016040528092919081815260200182805460018160011615610100020316600290048015610e465780601f10610e1b57610100808354040283529160200191610e46565b820191906000526020600020905b815481529060010190602001808311610e2957829003601f168201915b5050505050905083565b6000806000808673ffffffffffffffffffffffffffffffffffffffff1673ffffffffffffffffffffffffffffffffffffffff168152602001908152602001600020600001805460018160011615610100020316600290049050141580610f0d57506000600160008673ffffffffffffffffffffffffffffffffffffffff1673ffffffffffffffffffffffffffffffffffffffff16815260200190815260200160002060000180546001816001161561010002031660029004905014155b610f4c576040517f08c379a0000000000000000000000000000000000000000000000000000000008152600401610f4390612b68565b60405180910390fd5b82604051602001610f5d91906127f5565b604051602081830303815290604052805190602001206000808673ffffffffffffffffffffffffffffffffffffffff1673ffffffffffffffffffffffffffffffffffffffff168152602001908152602001600020600001604051602001610fc4919061280c565b60405160208183030381529060405280519060200120148015611072575081604051602001610ff391906127f5565b604051602081830303815290604052805190602001206000808673ffffffffffffffffffffffffffffffffffffffff1673ffffffffffffffffffffffffffffffffffffffff16815260200190815260200160002060010160405160200161105a919061280c565b60405160208183030381529060405280519060200120145b1561108057600290506111bb565b8260405160200161109191906127f5565b60405160208183030381529060405280519060200120600160008673ffffffffffffffffffffffffffffffffffffffff1673ffffffffffffffffffffffffffffffffffffffff1681526020019081526020016000206000016040516020016110f9919061280c565b604051602081830303815290604052805190602001201480156111a857508160405160200161112891906127f5565b60405160208183030381529060405280519060200120600160008673ffffffffffffffffffffffffffffffffffffffff1673ffffffffffffffffffffffffffffffffffffffff168152602001908152602001600020600101604051602001611190919061280c565b60405160208183030381529060405280519060200120145b156111b657600190506111bb565b600090505b9392505050565b600460009054906101000a900473ffffffffffffffffffffffffffffffffffffffff1673ffffffffffffffffffffffffffffffffffffffff163373ffffffffffffffffffffffffffffffffffffffff1614611252576040517f08c379a000000000000000000000000000000000000000000000000000000000815260040161124990612ac8565b60405180910390fd5b8080156112b657506000600160008473ffffffffffffffffffffffffffffffffffffffff1673ffffffffffffffffffffffffffffffffffffffff16815260200190815260200160002060000180546001816001161561010002031660029004905014155b80611317575060008060008473ffffffffffffffffffffffffffffffffffffffff1673ffffffffffffffffffffffffffffffffffffffff16815260200190815260200160002060000180546001816001161561010002031660029004905014155b611356576040517f08c379a000000000000000000000000000000000000000000000000000000000815260040161134d90612ae8565b60405180910390fd5b80156113ea57600160008373ffffffffffffffffffffffffffffffffffffffff1673ffffffffffffffffffffffffffffffffffffffff168152602001908152602001600020600080820160006113ac9190611e98565b6001820160006113bc9190611e98565b6002820160006101000a81549073ffffffffffffffffffffffffffffffffffffffff0219169055505061151b565b60026000808473ffffffffffffffffffffffffffffffffffffffff1673ffffffffffffffffffffffffffffffffffffffff16815260200190815260200160002060000160405161143a919061280c565b9081526020016040518091039020600080820160006114599190611e98565b6001820160006114699190611e98565b6002820160006101000a81549073ffffffffffffffffffffffffffffffffffffffff021916905550506000808373ffffffffffffffffffffffffffffffffffffffff1673ffffffffffffffffffffffffffffffffffffffff168152602001908152602001600020600080820160006114e19190611e98565b6001820160006114f19190611e98565b6002820160006101000a81549073ffffffffffffffffffffffffffffffffffffffff021916905550505b7f84575b21619a9ae6ef391477f1017be60323335aabaf95dc8daaca2b97ff6f29828260405161154c9291906128e2565b60405180910390a15050565b6001602052806000526040600020600091509050806000018054600181600116156101000203166002900480601f0160208091040260200160405190810160405280929190818152602001828054600181600116156101000203166002900480156116045780601f106115d957610100808354040283529160200191611604565b820191906000526020600020905b8154815290600101906020018083116115e757829003601f168201915b505050505090806001018054600181600116156101000203166002900480601f0160208091040260200160405190810160405280929190818152602001828054600181600116156101000203166002900480156116a25780601f10611677576101008083540402835291602001916116a2565b820191906000526020600020905b81548152906001019060200180831161168557829003601f168201915b5050505050908060020160009054906101000a900473ffffffffffffffffffffffffffffffffffffffff16905083565b600460009054906101000a900473ffffffffffffffffffffffffffffffffffffffff1681565b6000602052806000526040600020600091509050806000018054600181600116156101000203166002900480601f0160208091040260200160405190810160405280929190818152602001828054600181600116156101000203166002900480156117a45780601f10611779576101008083540402835291602001916117a4565b820191906000526020600020905b81548152906001019060200180831161178757829003601f168201915b505050505090806001018054600181600116156101000203166002900480601f0160208091040260200160405190810160405280929190818152602001828054600181600116156101000203166002900480156118425780601f1061181757610100808354040283529160200191611842565b820191906000526020600020905b81548152906001019060200180831161182557829003601f168201915b5050505050908060020160009054906101000a900473ffffffffffffffffffffffffffffffffffffffff16905083565b6000600160003373ffffffffffffffffffffffffffffffffffffffff1673ffffffffffffffffffffffffffffffffffffffff168152602001908152602001600020600001805460018160011615610100020316600290049050141561190c576040517f08c379a000000000000000000000000000000000000000000000000000000000815260040161190390612b88565b60405180910390fd5b611914611ee0565b848160000181905250838160200181905250828160400181905250600360008373ffffffffffffffffffffffffffffffffffffffff1673ffffffffffffffffffffffffffffffffffffffff168152602001908152602001600020819080600181540180825580915050906001820390600052602060002090600302016000909192909190915060008201518160000190805190602001906119b6929190611f01565b5060208201518160010190805190602001906119d3929190611f01565b5060408201518160020190805190602001906119f0929190611f01565b505050507f15318dcc2c09f5f472e35eea1902d60d65b9fd2852ec52e1e7719e18677466f93383878787604051611a2b95949392919061283e565b60405180910390a15050505050565b600460009054906101000a900473ffffffffffffffffffffffffffffffffffffffff1673ffffffffffffffffffffffffffffffffffffffff163373ffffffffffffffffffffffffffffffffffffffff1614611aca576040517f08c379a0000000000000000000000000000000000000000000000000000000008152600401611ac190612ac8565b60405180910390fd5b808015611b2d57506000600160008673ffffffffffffffffffffffffffffffffffffffff1673ffffffffffffffffffffffffffffffffffffffff168152602001908152602001600020600001805460018160011615610100020316600290049050145b80611b8d575060008060008673ffffffffffffffffffffffffffffffffffffffff1673ffffffffffffffffffffffffffffffffffffffff168152602001908152602001600020600001805460018160011615610100020316600290049050145b611bcc576040517f08c379a0000000000000000000000000000000000000000000000000000000008152600401611bc390612b28565b60405180910390fd5b611bd4611f81565b83816000018190525082816020018190525084816040019073ffffffffffffffffffffffffffffffffffffffff16908173ffffffffffffffffffffffffffffffffffffffff16815250508115611ced5780600160008773ffffffffffffffffffffffffffffffffffffffff1673ffffffffffffffffffffffffffffffffffffffff1681526020019081526020016000206000820151816000019080519060200190611c80929190611f01565b506020820151816001019080519060200190611c9d929190611f01565b5060408201518160020160006101000a81548173ffffffffffffffffffffffffffffffffffffffff021916908373ffffffffffffffffffffffffffffffffffffffff160217905550905050611e54565b80600285604051611cfe91906127f5565b90815260200160405180910390206000820151816000019080519060200190611d28929190611f01565b506020820151816001019080519060200190611d45929190611f01565b5060408201518160020160006101000a81548173ffffffffffffffffffffffffffffffffffffffff021916908373ffffffffffffffffffffffffffffffffffffffff160217905550905050806000808773ffffffffffffffffffffffffffffffffffffffff1673ffffffffffffffffffffffffffffffffffffffff1681526020019081526020016000206000820151816000019080519060200190611deb929190611f01565b506020820151816001019080519060200190611e08929190611f01565b5060408201518160020160006101000a81548173ffffffffffffffffffffffffffffffffffffffff021916908373ffffffffffffffffffffffffffffffffffffffff1602179055509050505b7f99ea35f66439010500c59c9714f04ed5ce6e9dcc9e07bc1d3a3b779c1d73dfe685858585604051611e89949392919061293b565b60405180910390a15050505050565b50805460018160011615610100020316600290046000825580601f10611ebe5750611edd565b601f016020900490600052602060002090810190611edc9190611fb8565b5b50565b60405180606001604052806060815260200160608152602001606081525090565b828054600181600116156101000203166002900490600052602060002090601f016020900481019282601f10611f4257805160ff1916838001178555611f70565b82800160010185558215611f70579182015b82811115611f6f578251825591602001919060010190611f54565b5b509050611f7d9190611fb8565b5090565b60405180606001604052806060815260200160608152602001600073ffffffffffffffffffffffffffffffffffffffff1681525090565b611fda91905b80821115611fd6576000816000905550600101611fbe565b5090565b90565b600081359050611fec81612dd2565b92915050565b60008135905061200181612de9565b92915050565b600082601f83011261201857600080fd5b813561202b61202682612c0b565b612bde565b9150808252602083016020830185838301111561204757600080fd5b612052838284612d7f565b50505092915050565b600082601f83011261206c57600080fd5b813561207f61207a82612c37565b612bde565b9150808252602083016020830185838301111561209b57600080fd5b6120a6838284612d7f565b50505092915050565b6000813590506120be81612e00565b92915050565b6000602082840312156120d657600080fd5b60006120e484828501611fdd565b91505092915050565b6000806040838503121561210057600080fd5b600061210e85828601611fdd565b925050602061211f85828601611ff2565b9150509250929050565b6000806040838503121561213c57600080fd5b600061214a85828601611fdd565b925050602083013567ffffffffffffffff81111561216757600080fd5b6121738582860161205b565b9150509250929050565b60008060006060848603121561219257600080fd5b60006121a086828701611fdd565b935050602084013567ffffffffffffffff8111156121bd57600080fd5b6121c98682870161205b565b925050604084013567ffffffffffffffff8111156121e657600080fd5b6121f28682870161205b565b9150509250925092565b6000806000806080858703121561221257600080fd5b600061222087828801611fdd565b945050602085013567ffffffffffffffff81111561223d57600080fd5b6122498782880161205b565b935050604085013567ffffffffffffffff81111561226657600080fd5b6122728782880161205b565b925050606061228387828801611ff2565b91505092959194509250565b600080604083850312156122a257600080fd5b60006122b085828601611fdd565b92505060206122c1858286016120af565b9150509250929050565b6000602082840312156122dd57600080fd5b600082013567ffffffffffffffff8111156122f757600080fd5b61230384828501612007565b91505092915050565b6000806000806080858703121561232257600080fd5b600085013567ffffffffffffffff81111561233c57600080fd5b6123488782880161205b565b945050602085013567ffffffffffffffff81111561236557600080fd5b6123718782880161205b565b935050604085013567ffffffffffffffff81111561238e57600080fd5b61239a8782880161205b565b92505060606123ab87828801611fdd565b91505092959194509250565b60006123c383836124d7565b905092915050565b6123d481612d49565b82525050565b6123e381612cf4565b82525050565b60006123f482612c88565b6123fe8185612cb6565b93508360208202850161241085612c63565b8060005b8581101561244c578484038952815161242d85826123b7565b945061243883612ca9565b925060208a01995050600181019050612414565b50829750879550505050505092915050565b61246781612d06565b82525050565b600061247882612c9e565b6124828185612cd8565b9350612492818560208601612d8e565b61249b81612dc1565b840191505092915050565b60006124b182612c9e565b6124bb8185612ce9565b93506124cb818560208601612d8e565b80840191505092915050565b60006124e282612c93565b6124ec8185612cc7565b93506124fc818560208601612d8e565b61250581612dc1565b840191505092915050565b600061251b82612c93565b6125258185612cd8565b9350612535818560208601612d8e565b61253e81612dc1565b840191505092915050565b600081546001811660008114612566576001811461258b576125cf565b607f60028304166125778187612ce9565b955060ff19831686528086019350506125cf565b600282046125998187612ce9565b95506125a485612c73565b60005b828110156125c6578154818901526001820191506020810190506125a7565b82880195505050505b505092915050565b60006125e4601783612cd8565b91507f43616c6c6572206973206e6f7420746865206f776e65720000000000000000006000830152602082019050919050565b6000612624601a83612cd8565b91507f757365722f73656e64657220646f6573206e6f742065786973740000000000006000830152602082019050919050565b6000612664601883612cd8565b91507f617474656d707420746f206163636573732064656e69656400000000000000006000830152602082019050919050565b60006126a4601a83612cd8565b91507f73656e6465722f7573657220616c7265616479206578697374730000000000006000830152602082019050919050565b60006126e4601583612cd8565b91507f446f63756d656e74204944206e6f7420666f756e6400000000000000000000006000830152602082019050919050565b6000612724600d83612cd8565b91507f616c6c20646f63756d656e7473000000000000000000000000000000000000006000830152602082019050919050565b6000612764601383612cd8565b91507f5573657220646f6573206e6f74206578697374000000000000000000000000006000830152602082019050919050565b60006127a4601a83612cd8565b91507f6163636f756e742075736564206973206e6f742073656e6465720000000000006000830152602082019050919050565b6127e081612d32565b82525050565b6127ef81612d3c565b82525050565b600061280182846124a6565b915081905092915050565b60006128188284612549565b915081905092915050565b600060208201905061283860008301846123da565b92915050565b600060a08201905061285360008301886123cb565b61286060208301876123da565b8181036040830152612872818661246d565b90508181036060830152612886818561246d565b9050818103608083015261289a818461246d565b90509695505050505050565b60006060820190506128bb60008301856123cb565b6128c860208301846123da565b81810360408301526128d981612657565b90509392505050565b60006040820190506128f760008301856123da565b612904602083018461245e565b9392505050565b600060408201905061292060008301856123da565b8181036020830152612932818461246d565b90509392505050565b600060808201905061295060008301876123da565b8181036020830152612962818661246d565b90508181036040830152612976818561246d565b9050612985606083018461245e565b95945050505050565b60006040820190506129a360008301846123da565b81810360208301526129b481612717565b905092915050565b600060208201905081810360008301526129d681846123e9565b905092915050565b600060208201905081810360008301526129f8818461246d565b905092915050565b60006040820190508181036000830152612a1a818561246d565b90508181036020830152612a2e818461246d565b90509392505050565b60006060820190508181036000830152612a518186612510565b90508181036020830152612a658185612510565b9050612a7460408301846123da565b949350505050565b60006060820190508181036000830152612a968186612510565b90508181036020830152612aaa8185612510565b90508181036040830152612abe8184612510565b9050949350505050565b60006020820190508181036000830152612ae1816125d7565b9050919050565b60006020820190508181036000830152612b0181612617565b9050919050565b60006020820190508181036000830152612b2181612657565b9050919050565b60006020820190508181036000830152612b4181612697565b9050919050565b60006020820190508181036000830152612b61816126d7565b9050919050565b60006020820190508181036000830152612b8181612757565b9050919050565b60006020820190508181036000830152612ba181612797565b9050919050565b6000602082019050612bbd60008301846127d7565b92915050565b6000602082019050612bd860008301846127e6565b92915050565b6000604051905081810181811067ffffffffffffffff82111715612c0157600080fd5b8060405250919050565b600067ffffffffffffffff821115612c2257600080fd5b601f19601f8301169050602081019050919050565b600067ffffffffffffffff821115612c4e57600080fd5b601f19601f8301169050602081019050919050565b6000819050602082019050919050565b60008190508160005260206000209050919050565b600081519050919050565b600081519050919050565b600081519050919050565b6000602082019050919050565b600082825260208201905092915050565b600082825260208201905092915050565b600082825260208201905092915050565b600081905092915050565b6000612cff82612d12565b9050919050565b60008115159050919050565b600073ffffffffffffffffffffffffffffffffffffffff82169050919050565b6000819050919050565b600060ff82169050919050565b6000612d5482612d5b565b9050919050565b6000612d6682612d6d565b9050919050565b6000612d7882612d12565b9050919050565b82818337600083830152505050565b60005b83811015612dac578082015181840152602081019050612d91565b83811115612dbb576000848401525b50505050565b6000601f19601f8301169050919050565b612ddb81612cf4565b8114612de657600080fd5b50565b612df281612d06565b8114612dfd57600080fd5b50565b612e0981612d32565b8114612e1457600080fd5b5056fea365627a7a72315820f13aa339657fb34d9b3173d786bdc8d6cfe702169ec0eebab30e887b8b0467bf6c6578706572696d656e74616cf564736f6c63430005100040",
  "source": "pragma solidity ^0.5.16;\r\npragma experimental ABIEncoderV2;\r\n\r\ncontract Access_Control {\r\n    struct User {\r\n        string username;\r\n        string userID;\r\n        address useraddress;\r\n    }\r\n\r\n    struct Document {\r\n        string docname;\r\n        string ipfshash;\r\n        string docID;\r\n    }\r\n\r\n    mapping(address => User) public receiverList;\r\n    mapping(address => User) public senderList;\r\n    mapping(string => User) public userFromName;\r\n    mapping(address => Document[]) public docAccessList;\r\n    address public owner;\r\n\r\n    constructor() public {\r\n        owner = msg.sender;\r\n    }\r\n\r\n    modifier onlyOwner() {\r\n        require(msg.sender == owner, \"Caller is not the owner\");\r\n        _;\r\n    }\r\n\r\n    event UserAdded(address userAddress, string username, string userID, bool sender);\r\n    event UserDeleted(address userAddress, bool sender);\r\n    event DocumentAdded(address sender, address userAddress, string docname, string ipfshash, string docID);\r\n    event DocumentAccessed(address userAddress, string docname);\r\n    event AccessDenied(address sender, address userAddress, string message);\r\n\r\n    function getuserList(address _add) public view onlyOwner returns (string memory, string memory) {\r\n        return (receiverList[_add].username, receiverList[_add].userID);\r\n    }\r\n\r\n    function addUser(address _userAddress, string memory _username, string memory _userID, bool sender) public onlyOwner {\r\n        require((sender && bytes(senderList[_userAddress].username).length == 0) ||\r\n            (bytes(receiverList[_userAddress].username).length == 0),\r\n            \"sender/user already exists\");\r\n\r\n        User memory new_user;\r\n        new_user.username = _username;\r\n        new_user.userID = _userID;\r\n        new_user.useraddress = _userAddress;\r\n\r\n        if (sender) {\r\n            senderList[_userAddress] = new_user;\r\n        } else {\r\n            userFromName[_username] = new_user;\r\n            receiverList[_userAddress] = new_user;\r\n        }\r\n        \r\n        emit UserAdded(_userAddress, _username, _userID, sender);\r\n    }\r\n\r\n    function deleteUser(address _userAddress, bool sender) public onlyOwner {\r\n        require((sender && bytes(senderList[_userAddress].username).length != 0) ||\r\n            (bytes(receiverList[_userAddress].username).length != 0), \"user/sender does not exist\");\r\n\r\n        if (sender) {\r\n            delete senderList[_userAddress];\r\n        } else {\r\n            delete userFromName[receiverList[_userAddress].username];\r\n            delete receiverList[_userAddress];\r\n        }\r\n        \r\n        emit UserDeleted(_userAddress, sender);\r\n    }\r\n\r\n    function verifyUser(address _userAddress, string memory _username, string memory _userID) public view returns (uint8) {\r\n        require((bytes(receiverList[_userAddress].username).length != 0) || (bytes(senderList[_userAddress].username).length != 0), \"User does not exist\");\r\n\r\n        if (keccak256(abi.encodePacked(receiverList[_userAddress].username)) == keccak256(abi.encodePacked(_username)) &&\r\n            keccak256(abi.encodePacked(receiverList[_userAddress].userID)) == keccak256(abi.encodePacked(_userID))) {\r\n            return 2;\r\n        } \r\n        if (keccak256(abi.encodePacked(senderList[_userAddress].username)) == keccak256(abi.encodePacked(_username)) &&\r\n            keccak256(abi.encodePacked(senderList[_userAddress].userID)) == keccak256(abi.encodePacked(_userID))) {\r\n            return 1;\r\n        }\r\n\r\n        return 0;\r\n    }\r\n\r\n    function addDocument(string memory _docname, string memory _ipfshash, string memory _docID, address _userAddress) public {\r\n        require(bytes(senderList[msg.sender].username).length != 0, \"account used is not sender\");\r\n\r\n        Document memory new_doc;\r\n        new_doc.docname = _docname;\r\n        new_doc.ipfshash = _ipfshash;\r\n        new_doc.docID = _docID;\r\n\r\n        docAccessList[_userAddress].push(new_doc);\r\n\r\n        emit DocumentAdded(msg.sender, _userAddress, _docname, _ipfshash, _docID);\r\n    }\r\n\r\n    function getDocCount(address _userAddress) public view returns (uint) {\r\n        return docAccessList[_userAddress].length;\r\n    }\r\n\r\n    function getDocuments(address _userAddress) public returns (string[] memory) {\r\n        if (msg.sender != _userAddress) {\r\n            emit AccessDenied(msg.sender, _userAddress, \"attempt to access denied\");\r\n            revert(\"attempt to access denied\");\r\n        }\r\n\r\n        uint docCount = docAccessList[_userAddress].length;\r\n        string[] memory docnames = new string[](docCount);\r\n\r\n        for (uint i = 0; i < docCount; i++) {\r\n            Document storage doc = docAccessList[_userAddress][i];\r\n            docnames[i] = doc.docname;\r\n        }\r\n\r\n        emit DocumentAccessed(_userAddress, \"all documents\");\r\n\r\n        return docnames;\r\n    }\r\n\r\n    function getIPFSHashFromDocname(address _userAddress, string memory _docname) public returns (string memory) {\r\n        require(msg.sender == _userAddress, \"attempt to access denied\");\r\n\r\n        Document[] storage documents = docAccessList[_userAddress];\r\n\r\n        for (uint i = 0; i < documents.length; i++) {\r\n            if (keccak256(abi.encodePacked(documents[i].docname)) == keccak256(abi.encodePacked(_docname))) {\r\n                emit DocumentAccessed(_userAddress, _docname);\r\n                return documents[i].ipfshash;\r\n            }\r\n        }\r\n\r\n        revert(\"Document ID not found\");\r\n    }\r\n}\r\n",
  "sourcePath": "C:\\Users\\alex_\\lawfer_root\\contracts\\Access_Control.sol",
  "compiler": {
    "name": "solc",
    "version": "0.5.16+commit.9c3226ce.Emscripten.clang"
  },
  "schemaVersion": "3.4.16",
  "updatedAt": "2024-07-16T08:57:26.094Z",
  "networkType": "ethereum",
  "devdoc": {
    "methods": {}
  },
  "userdoc": {
    "methods": {}
  }
}